{
  "contractName": "CodeUpdateable",
  "abi": [
    {
      "constant": true,
      "inputs": [],
      "name": "codeUpdateState",
      "outputs": [
        {
          "name": "",
          "type": "uint8"
        }
      ],
      "payable": false,
      "stateMutability": "view",
      "type": "function"
    },
    {
      "constant": true,
      "inputs": [],
      "name": "owner",
      "outputs": [
        {
          "name": "",
          "type": "address"
        }
      ],
      "payable": false,
      "stateMutability": "view",
      "type": "function"
    },
    {
      "constant": false,
      "inputs": [
        {
          "name": "newOwner",
          "type": "address"
        }
      ],
      "name": "transferOwnership",
      "outputs": [],
      "payable": false,
      "stateMutability": "nonpayable",
      "type": "function"
    },
    {
      "constant": false,
      "inputs": [],
      "name": "beginCodeUpdate",
      "outputs": [],
      "payable": false,
      "stateMutability": "nonpayable",
      "type": "function"
    },
    {
      "constant": false,
      "inputs": [],
      "name": "cancelCodeUpdate",
      "outputs": [],
      "payable": false,
      "stateMutability": "nonpayable",
      "type": "function"
    },
    {
      "constant": false,
      "inputs": [],
      "name": "completeCodeUpdate",
      "outputs": [],
      "payable": false,
      "stateMutability": "nonpayable",
      "type": "function"
    }
  ],
  "bytecode": "0x6060604052336000806101000a81548173ffffffffffffffffffffffffffffffffffffffff021916908373ffffffffffffffffffffffffffffffffffffffff1602179055506104ea806100536000396000f300606060405260043610610078576000357c0100000000000000000000000000000000000000000000000000000000900463ffffffff16806379a958c21461007d5780638da5cb5b146100b4578063950dff2014610109578063ba3f41da1461011e578063c85c75b214610133578063f2fde38b14610148575b600080fd5b341561008857600080fd5b610090610181565b604051808260018111156100a057fe5b60ff16815260200191505060405180910390f35b34156100bf57600080fd5b6100c7610194565b604051808273ffffffffffffffffffffffffffffffffffffffff1673ffffffffffffffffffffffffffffffffffffffff16815260200191505060405180910390f35b341561011457600080fd5b61011c6101b9565b005b341561012957600080fd5b61013161026c565b005b341561013e57600080fd5b610146610321565b005b341561015357600080fd5b61017f600480803573ffffffffffffffffffffffffffffffffffffffff169060200190919050506103e9565b005b600060149054906101000a900460ff1681565b6000809054906101000a900473ffffffffffffffffffffffffffffffffffffffff1681565b6000809054906101000a900473ffffffffffffffffffffffffffffffffffffffff1673ffffffffffffffffffffffffffffffffffffffff163373ffffffffffffffffffffffffffffffffffffffff1614151561021457600080fd5b60018081111561022057fe5b600060149054906101000a900460ff16600181111561023b57fe5b14151561024757600080fd5b60008060146101000a81548160ff0219169083600181111561026557fe5b0217905550565b6000809054906101000a900473ffffffffffffffffffffffffffffffffffffffff1673ffffffffffffffffffffffffffffffffffffffff163373ffffffffffffffffffffffffffffffffffffffff161415156102c757600080fd5b600060018111156102d457fe5b600060149054906101000a900460ff1660018111156102ef57fe5b1415156102fb57600080fd5b6001600060146101000a81548160ff0219169083600181111561031a57fe5b0217905550565b6000809054906101000a900473ffffffffffffffffffffffffffffffffffffffff1673ffffffffffffffffffffffffffffffffffffffff163373ffffffffffffffffffffffffffffffffffffffff1614151561037c57600080fd5b60018081111561038857fe5b600060149054906101000a900460ff1660018111156103a357fe5b1415156103af57600080fd5b6000809054906101000a900473ffffffffffffffffffffffffffffffffffffffff1673ffffffffffffffffffffffffffffffffffffffff16ff5b6000809054906101000a900473ffffffffffffffffffffffffffffffffffffffff1673ffffffffffffffffffffffffffffffffffffffff163373ffffffffffffffffffffffffffffffffffffffff1614151561044457600080fd5b600073ffffffffffffffffffffffffffffffffffffffff168173ffffffffffffffffffffffffffffffffffffffff161415156104bb57806000806101000a81548173ffffffffffffffffffffffffffffffffffffffff021916908373ffffffffffffffffffffffffffffffffffffffff1602179055505b505600a165627a7a72305820bd41ff63794c0e3aba89d6fd387311fe52b03ea9eccf8d07974f1dd0623e0d4e0029",
  "source": "pragma solidity ^0.4.11;\nimport \"./Types.sol\";\n\n\ncontract CodeUpdateable is Ownable {\n    // allows to stop operations and migrate data to different contract\n    enum CodeUpdateState { CurrentCode, OngoingUpdate /*, CodeUpdated*/}\n    CodeUpdateState public codeUpdateState;\n\n    modifier isCurrentCode() {\n      if (codeUpdateState != CodeUpdateState.CurrentCode)\n        throw;\n      _;\n    }\n\n    modifier inCodeUpdate() {\n      if (codeUpdateState != CodeUpdateState.OngoingUpdate)\n        throw;\n      _;\n    }\n\n    function beginCodeUpdate() public onlyOwner isCurrentCode {\n      codeUpdateState = CodeUpdateState.OngoingUpdate;\n    }\n\n    function cancelCodeUpdate() public onlyOwner inCodeUpdate {\n      codeUpdateState = CodeUpdateState.CurrentCode;\n    }\n\n    function completeCodeUpdate() public onlyOwner inCodeUpdate {\n      selfdestruct(owner);\n    }\n}\n",
  "sourcePath": "/home/ethnode/parity/ESOP/contracts/CodeUpdateable.sol",
  "compiler": {
    "name": "solc",
    "version": "0.4.19+commit.c4cbbb05.Emscripten.clang"
  },
  "schemaVersion": "2.0.0",
  "updatedAt": "2018-03-18T07:17:38.497Z"
}