{
  "contractName": "EmployeesList",
  "abi": [
    {
      "constant": false,
      "inputs": [],
      "name": "selfdestruct",
      "outputs": [],
      "payable": false,
      "stateMutability": "nonpayable",
      "type": "function"
    },
    {
      "constant": true,
      "inputs": [],
      "name": "owner",
      "outputs": [
        {
          "name": "",
          "type": "address"
        }
      ],
      "payable": false,
      "stateMutability": "view",
      "type": "function"
    },
    {
      "constant": true,
      "inputs": [
        {
          "name": "",
          "type": "uint256"
        }
      ],
      "name": "addresses",
      "outputs": [
        {
          "name": "",
          "type": "address"
        }
      ],
      "payable": false,
      "stateMutability": "view",
      "type": "function"
    },
    {
      "constant": false,
      "inputs": [
        {
          "name": "newOwner",
          "type": "address"
        }
      ],
      "name": "transferOwnership",
      "outputs": [],
      "payable": false,
      "stateMutability": "nonpayable",
      "type": "function"
    },
    {
      "anonymous": false,
      "inputs": [
        {
          "indexed": true,
          "name": "e",
          "type": "address"
        },
        {
          "indexed": false,
          "name": "poolOptions",
          "type": "uint32"
        },
        {
          "indexed": false,
          "name": "extraOptions",
          "type": "uint32"
        },
        {
          "indexed": false,
          "name": "idx",
          "type": "uint16"
        }
      ],
      "name": "CreateEmployee",
      "type": "event"
    },
    {
      "anonymous": false,
      "inputs": [
        {
          "indexed": true,
          "name": "e",
          "type": "address"
        },
        {
          "indexed": false,
          "name": "poolOptions",
          "type": "uint32"
        },
        {
          "indexed": false,
          "name": "extraOptions",
          "type": "uint32"
        },
        {
          "indexed": false,
          "name": "idx",
          "type": "uint16"
        }
      ],
      "name": "UpdateEmployee",
      "type": "event"
    },
    {
      "anonymous": false,
      "inputs": [
        {
          "indexed": true,
          "name": "e",
          "type": "address"
        },
        {
          "indexed": false,
          "name": "oldState",
          "type": "uint8"
        },
        {
          "indexed": false,
          "name": "newState",
          "type": "uint8"
        }
      ],
      "name": "ChangeEmployeeState",
      "type": "event"
    },
    {
      "anonymous": false,
      "inputs": [
        {
          "indexed": true,
          "name": "e",
          "type": "address"
        }
      ],
      "name": "RemoveEmployee",
      "type": "event"
    },
    {
      "constant": true,
      "inputs": [],
      "name": "size",
      "outputs": [
        {
          "name": "",
          "type": "uint16"
        }
      ],
      "payable": false,
      "stateMutability": "view",
      "type": "function"
    },
    {
      "constant": false,
      "inputs": [
        {
          "name": "e",
          "type": "address"
        },
        {
          "name": "issueDate",
          "type": "uint32"
        },
        {
          "name": "timeToSign",
          "type": "uint32"
        },
        {
          "name": "terminatedAt",
          "type": "uint32"
        },
        {
          "name": "fadeoutStarts",
          "type": "uint32"
        },
        {
          "name": "poolOptions",
          "type": "uint32"
        },
        {
          "name": "extraOptions",
          "type": "uint32"
        },
        {
          "name": "suspendedAt",
          "type": "uint32"
        },
        {
          "name": "state",
          "type": "uint8"
        }
      ],
      "name": "setEmployee",
      "outputs": [
        {
          "name": "isNew",
          "type": "bool"
        }
      ],
      "payable": false,
      "stateMutability": "nonpayable",
      "type": "function"
    },
    {
      "constant": false,
      "inputs": [
        {
          "name": "e",
          "type": "address"
        },
        {
          "name": "state",
          "type": "uint8"
        }
      ],
      "name": "changeState",
      "outputs": [],
      "payable": false,
      "stateMutability": "nonpayable",
      "type": "function"
    },
    {
      "constant": false,
      "inputs": [
        {
          "name": "e",
          "type": "address"
        },
        {
          "name": "fadeoutStarts",
          "type": "uint32"
        }
      ],
      "name": "setFadeoutStarts",
      "outputs": [],
      "payable": false,
      "stateMutability": "nonpayable",
      "type": "function"
    },
    {
      "constant": false,
      "inputs": [
        {
          "name": "e",
          "type": "address"
        }
      ],
      "name": "removeEmployee",
      "outputs": [
        {
          "name": "",
          "type": "bool"
        }
      ],
      "payable": false,
      "stateMutability": "nonpayable",
      "type": "function"
    },
    {
      "constant": false,
      "inputs": [
        {
          "name": "e",
          "type": "address"
        },
        {
          "name": "issueDate",
          "type": "uint32"
        },
        {
          "name": "terminatedAt",
          "type": "uint32"
        },
        {
          "name": "fadeoutStarts",
          "type": "uint32"
        },
        {
          "name": "state",
          "type": "uint8"
        }
      ],
      "name": "terminateEmployee",
      "outputs": [],
      "payable": false,
      "stateMutability": "nonpayable",
      "type": "function"
    },
    {
      "constant": true,
      "inputs": [
        {
          "name": "e",
          "type": "address"
        }
      ],
      "name": "getEmployee",
      "outputs": [
        {
          "name": "",
          "type": "uint32"
        },
        {
          "name": "",
          "type": "uint32"
        },
        {
          "name": "",
          "type": "uint32"
        },
        {
          "name": "",
          "type": "uint32"
        },
        {
          "name": "",
          "type": "uint32"
        },
        {
          "name": "",
          "type": "uint32"
        },
        {
          "name": "",
          "type": "uint32"
        },
        {
          "name": "",
          "type": "uint8"
        }
      ],
      "payable": false,
      "stateMutability": "view",
      "type": "function"
    },
    {
      "constant": true,
      "inputs": [
        {
          "name": "e",
          "type": "address"
        }
      ],
      "name": "hasEmployee",
      "outputs": [
        {
          "name": "",
          "type": "bool"
        }
      ],
      "payable": false,
      "stateMutability": "view",
      "type": "function"
    },
    {
      "constant": true,
      "inputs": [
        {
          "name": "e",
          "type": "address"
        }
      ],
      "name": "getSerializedEmployee",
      "outputs": [
        {
          "name": "",
          "type": "uint256[9]"
        }
      ],
      "payable": false,
      "stateMutability": "view",
      "type": "function"
    }
  ],
  "bytecode": "0x6060604052336000806101000a81548173ffffffffffffffffffffffffffffffffffffffff021916908373ffffffffffffffffffffffffffffffffffffffff160217905550611a73806100536000396000f3006060604052600436106100c5576000357c0100000000000000000000000000000000000000000000000000000000900463ffffffff16806307716dd2146100ca578063091157cb1461011b5780632462f6f114610190578063281336b4146101d85780632ed4a2c71461024a57806332648e091461028f578063679d38e01461036f57806373ece9c4146103845780638da5cb5b1461044a578063949d225d1461049f578063d108177a146104d0578063edf26d9b14610521578063f2fde38b14610584575b600080fd5b34156100d557600080fd5b610101600480803573ffffffffffffffffffffffffffffffffffffffff169060200190919050506105bd565b604051808215151515815260200191505060405180910390f35b341561012657600080fd5b610152600480803573ffffffffffffffffffffffffffffffffffffffff1690602001909190505061061e565b6040518082600960200280838360005b8381101561017d578082015181840152602081019050610162565b5050505090500191505060405180910390f35b341561019b57600080fd5b6101d6600480803573ffffffffffffffffffffffffffffffffffffffff1690602001909190803563ffffffff169060200190919050506107fb565b005b34156101e357600080fd5b610248600480803573ffffffffffffffffffffffffffffffffffffffff1690602001909190803563ffffffff1690602001909190803563ffffffff1690602001909190803563ffffffff1690602001909190803560ff16906020019091905050610a8f565b005b341561025557600080fd5b61028d600480803573ffffffffffffffffffffffffffffffffffffffff1690602001909190803560ff16906020019091905050610d6b565b005b341561029a57600080fd5b6102c6600480803573ffffffffffffffffffffffffffffffffffffffff16906020019091905050610f50565b604051808963ffffffff1663ffffffff1681526020018863ffffffff1663ffffffff1681526020018763ffffffff1663ffffffff1681526020018663ffffffff1663ffffffff1681526020018563ffffffff1663ffffffff1681526020018463ffffffff1663ffffffff1681526020018363ffffffff1663ffffffff16815260200182600481111561035457fe5b60ff1681526020019850505050505050505060405180910390f35b341561037a57600080fd5b610382611084565b005b341561038f57600080fd5b610430600480803573ffffffffffffffffffffffffffffffffffffffff1690602001909190803563ffffffff1690602001909190803563ffffffff1690602001909190803563ffffffff1690602001909190803563ffffffff1690602001909190803563ffffffff1690602001909190803563ffffffff1690602001909190803563ffffffff1690602001909190803560ff16906020019091905050611119565b604051808215151515815260200191505060405180910390f35b341561045557600080fd5b61045d61158c565b604051808273ffffffffffffffffffffffffffffffffffffffff1673ffffffffffffffffffffffffffffffffffffffff16815260200191505060405180910390f35b34156104aa57600080fd5b6104b26115b1565b604051808261ffff1661ffff16815260200191505060405180910390f35b34156104db57600080fd5b610507600480803573ffffffffffffffffffffffffffffffffffffffff169060200190919050506115be565b604051808215151515815260200191505060405180910390f35b341561052c57600080fd5b6105426004808035906020019091905050611823565b604051808273ffffffffffffffffffffffffffffffffffffffff1673ffffffffffffffffffffffffffffffffffffffff16815260200191505060405180910390f35b341561058f57600080fd5b6105bb600480803573ffffffffffffffffffffffffffffffffffffffff16906020019091905050611862565b005b600080600160008473ffffffffffffffffffffffffffffffffffffffff1673ffffffffffffffffffffffffffffffffffffffff168152602001908152602001600020600001601d9054906101000a900461ffff1661ffff1614159050919050565b610626611947565b61062e611970565b600160008473ffffffffffffffffffffffffffffffffffffffff1673ffffffffffffffffffffffffffffffffffffffff16815260200190815260200160002061012060405190810160405290816000820160009054906101000a900463ffffffff1663ffffffff1663ffffffff1681526020016000820160049054906101000a900463ffffffff1663ffffffff1663ffffffff1681526020016000820160089054906101000a900463ffffffff1663ffffffff1663ffffffff16815260200160008201600c9054906101000a900463ffffffff1663ffffffff1663ffffffff1681526020016000820160109054906101000a900463ffffffff1663ffffffff1663ffffffff1681526020016000820160149054906101000a900463ffffffff1663ffffffff1663ffffffff1681526020016000820160189054906101000a900463ffffffff1663ffffffff1663ffffffff16815260200160008201601c9054906101000a900460ff1660048111156107a257fe5b60048111156107ad57fe5b815260200160008201601d9054906101000a900461ffff1661ffff1661ffff16815250509050600081610100015161ffff1614156107ea57600080fd5b6107f381611937565b915050919050565b6000809054906101000a900473ffffffffffffffffffffffffffffffffffffffff1673ffffffffffffffffffffffffffffffffffffffff163373ffffffffffffffffffffffffffffffffffffffff1614151561085657600080fd5b6000600160008473ffffffffffffffffffffffffffffffffffffffff1673ffffffffffffffffffffffffffffffffffffffff168152602001908152602001600020600001601d9054906101000a900461ffff1661ffff1614156108b857600080fd5b8173ffffffffffffffffffffffffffffffffffffffff167f872bac57d4f4dfabc41b1365cabe11f5d30c016baee0b96cdecbcd677a5be030600160008573ffffffffffffffffffffffffffffffffffffffff1673ffffffffffffffffffffffffffffffffffffffff16815260200190815260200160002060000160109054906101000a900463ffffffff16600160008673ffffffffffffffffffffffffffffffffffffffff1673ffffffffffffffffffffffffffffffffffffffff16815260200190815260200160002060000160149054906101000a900463ffffffff16600160008773ffffffffffffffffffffffffffffffffffffffff1673ffffffffffffffffffffffffffffffffffffffff168152602001908152602001600020600001601d9054906101000a900461ffff16604051808463ffffffff1663ffffffff1681526020018363ffffffff1663ffffffff1681526020018261ffff1661ffff168152602001935050505060405180910390a280600160008473ffffffffffffffffffffffffffffffffffffffff1673ffffffffffffffffffffffffffffffffffffffff168152602001908152602001600020600001600c6101000a81548163ffffffff021916908363ffffffff1602179055505050565b60008060009054906101000a900473ffffffffffffffffffffffffffffffffffffffff1673ffffffffffffffffffffffffffffffffffffffff163373ffffffffffffffffffffffffffffffffffffffff16141515610aec57600080fd5b60036004811115610af957fe5b826004811115610b0557fe5b141515610b1157600080fd5b600160008773ffffffffffffffffffffffffffffffffffffffff1673ffffffffffffffffffffffffffffffffffffffff1681526020019081526020016000209050600081600001601d9054906101000a900461ffff1661ffff161415610b7657600080fd5b8573ffffffffffffffffffffffffffffffffffffffff167fbd797e32cc0b6c7ae8f2c18c2dedba492311d09bd4b55ae94ad3cc2bafd38dfb82600001601c9054906101000a900460ff168460405180836004811115610bd157fe5b60ff168152602001826004811115610be557fe5b60ff1681526020019250505060405180910390a28181600001601c6101000a81548160ff02191690836004811115610c1957fe5b0217905550848160000160006101000a81548163ffffffff021916908363ffffffff160217905550838160000160086101000a81548163ffffffff021916908363ffffffff1602179055508281600001600c6101000a81548163ffffffff021916908363ffffffff16021790555060008160000160186101000a81548163ffffffff021916908363ffffffff1602179055508573ffffffffffffffffffffffffffffffffffffffff167f872bac57d4f4dfabc41b1365cabe11f5d30c016baee0b96cdecbcd677a5be0308260000160109054906101000a900463ffffffff168360000160149054906101000a900463ffffffff1684600001601d9054906101000a900461ffff16604051808463ffffffff1663ffffffff1681526020018363ffffffff1663ffffffff1681526020018261ffff1661ffff168152602001935050505060405180910390a2505050505050565b6000809054906101000a900473ffffffffffffffffffffffffffffffffffffffff1673ffffffffffffffffffffffffffffffffffffffff163373ffffffffffffffffffffffffffffffffffffffff16141515610dc657600080fd5b6000600160008473ffffffffffffffffffffffffffffffffffffffff1673ffffffffffffffffffffffffffffffffffffffff168152602001908152602001600020600001601d9054906101000a900461ffff1661ffff161415610e2857600080fd5b8173ffffffffffffffffffffffffffffffffffffffff167fbd797e32cc0b6c7ae8f2c18c2dedba492311d09bd4b55ae94ad3cc2bafd38dfb600160008573ffffffffffffffffffffffffffffffffffffffff1673ffffffffffffffffffffffffffffffffffffffff168152602001908152602001600020600001601c9054906101000a900460ff168360405180836004811115610ec157fe5b60ff168152602001826004811115610ed557fe5b60ff1681526020019250505060405180910390a280600160008473ffffffffffffffffffffffffffffffffffffffff1673ffffffffffffffffffffffffffffffffffffffff168152602001908152602001600020600001601c6101000a81548160ff02191690836004811115610f4757fe5b02179055505050565b6000806000806000806000806000600160008b73ffffffffffffffffffffffffffffffffffffffff1673ffffffffffffffffffffffffffffffffffffffff1681526020019081526020016000209050600081600001601d9054906101000a900461ffff1661ffff161415610fc357600080fd5b8060000160009054906101000a900463ffffffff168160000160049054906101000a900463ffffffff168260000160089054906101000a900463ffffffff1683600001600c9054906101000a900463ffffffff168460000160109054906101000a900463ffffffff168560000160149054906101000a900463ffffffff168660000160189054906101000a900463ffffffff1687600001601c9054906101000a900460ff169850985098509850985098509850985050919395975091939597565b6000809054906101000a900473ffffffffffffffffffffffffffffffffffffffff1673ffffffffffffffffffffffffffffffffffffffff163373ffffffffffffffffffffffffffffffffffffffff161415156110df57600080fd5b6000809054906101000a900473ffffffffffffffffffffffffffffffffffffffff1673ffffffffffffffffffffffffffffffffffffffff16ff5b60008060008060009054906101000a900473ffffffffffffffffffffffffffffffffffffffff1673ffffffffffffffffffffffffffffffffffffffff163373ffffffffffffffffffffffffffffffffffffffff1614151561117957600080fd5b600160008d73ffffffffffffffffffffffffffffffffffffffff1673ffffffffffffffffffffffffffffffffffffffff168152602001908152602001600020600001601d9054906101000a900461ffff16915060008261ffff1614156112e057600280549050905061ffff8114156111f057600080fd5b600192506001810191506002805480600101828161120e91906119f6565b916000526020600020900160008e909190916101000a81548173ffffffffffffffffffffffffffffffffffffffff021916908373ffffffffffffffffffffffffffffffffffffffff160217905550508b73ffffffffffffffffffffffffffffffffffffffff167fd7c8f959cdcdb249d238ea3d756c6b22f79aa6e8b92f909ca4c53a20d9b16f0d888885604051808463ffffffff1663ffffffff1681526020018363ffffffff1663ffffffff1681526020018261ffff1661ffff168152602001935050505060405180910390a2611363565b600092508b73ffffffffffffffffffffffffffffffffffffffff167f872bac57d4f4dfabc41b1365cabe11f5d30c016baee0b96cdecbcd677a5be030888885604051808463ffffffff1663ffffffff1681526020018363ffffffff1663ffffffff1681526020018261ffff1661ffff168152602001935050505060405180910390a25b610120604051908101604052808c63ffffffff1681526020018b63ffffffff1681526020018a63ffffffff1681526020018963ffffffff1681526020018863ffffffff1681526020018763ffffffff1681526020018663ffffffff1681526020018560048111156113d057fe5b81526020018361ffff16815250600160008e73ffffffffffffffffffffffffffffffffffffffff1673ffffffffffffffffffffffffffffffffffffffff16815260200190815260200160002060008201518160000160006101000a81548163ffffffff021916908363ffffffff16021790555060208201518160000160046101000a81548163ffffffff021916908363ffffffff16021790555060408201518160000160086101000a81548163ffffffff021916908363ffffffff160217905550606082015181600001600c6101000a81548163ffffffff021916908363ffffffff16021790555060808201518160000160106101000a81548163ffffffff021916908363ffffffff16021790555060a08201518160000160146101000a81548163ffffffff021916908363ffffffff16021790555060c08201518160000160186101000a81548163ffffffff021916908363ffffffff16021790555060e082015181600001601c6101000a81548160ff0219169083600481111561155157fe5b021790555061010082015181600001601d6101000a81548161ffff021916908361ffff16021790555090505050509998505050505050505050565b6000809054906101000a900473ffffffffffffffffffffffffffffffffffffffff1681565b6000600280549050905090565b6000806000809054906101000a900473ffffffffffffffffffffffffffffffffffffffff1673ffffffffffffffffffffffffffffffffffffffff163373ffffffffffffffffffffffffffffffffffffffff1614151561161c57600080fd5b600160008473ffffffffffffffffffffffffffffffffffffffff1673ffffffffffffffffffffffffffffffffffffffff168152602001908152602001600020600001601d9054906101000a900461ffff16905060008161ffff16111561181857600160008473ffffffffffffffffffffffffffffffffffffffff1673ffffffffffffffffffffffffffffffffffffffff168152602001908152602001600020600080820160006101000a81549063ffffffff02191690556000820160046101000a81549063ffffffff02191690556000820160086101000a81549063ffffffff021916905560008201600c6101000a81549063ffffffff02191690556000820160106101000a81549063ffffffff02191690556000820160146101000a81549063ffffffff02191690556000820160186101000a81549063ffffffff021916905560008201601c6101000a81549060ff021916905560008201601d6101000a81549061ffff0219169055505060026001820361ffff1681548110151561179e57fe5b906000526020600020900160006101000a81549073ffffffffffffffffffffffffffffffffffffffff02191690558273ffffffffffffffffffffffffffffffffffffffff167f52d6abdca596d1c4a93f3df131dcf3a55ecaaa92ab3a0be58a15b98aab12d49b60405160405180910390a26001915061181d565b600091505b50919050565b60028181548110151561183257fe5b90600052602060002090016000915054906101000a900473ffffffffffffffffffffffffffffffffffffffff1681565b6000809054906101000a900473ffffffffffffffffffffffffffffffffffffffff1673ffffffffffffffffffffffffffffffffffffffff163373ffffffffffffffffffffffffffffffffffffffff161415156118bd57600080fd5b600073ffffffffffffffffffffffffffffffffffffffff168173ffffffffffffffffffffffffffffffffffffffff1614151561193457806000806101000a81548173ffffffffffffffffffffffffffffffffffffffff021916908373ffffffffffffffffffffffffffffffffffffffff1602179055505b50565b61193f611947565b819050919050565b610120604051908101604052806009905b60008152602001906001900390816119585790505090565b61012060405190810160405280600063ffffffff168152602001600063ffffffff168152602001600063ffffffff168152602001600063ffffffff168152602001600063ffffffff168152602001600063ffffffff168152602001600063ffffffff168152602001600060048111156119e557fe5b8152602001600061ffff1681525090565b815481835581811511611a1d57818360005260206000209182019101611a1c9190611a22565b5b505050565b611a4491905b80821115611a40576000816000905550600101611a28565b5090565b905600a165627a7a72305820751aeeceed32f159c44c47d08d3a4c17aaab249fc688a0ea31d1d5d58226245a0029",
  "source": "pragma solidity ^0.4.11;\nimport \"./ESOPTypes.sol\";\n\n\ncontract EmployeesList is ESOPTypes, Ownable, Destructable {\n  event CreateEmployee(address indexed e, uint32 poolOptions, uint32 extraOptions, uint16 idx);\n  event UpdateEmployee(address indexed e, uint32 poolOptions, uint32 extraOptions, uint16 idx);\n  event ChangeEmployeeState(address indexed e, EmployeeState oldState, EmployeeState newState);\n  event RemoveEmployee(address indexed e);\n  mapping (address => Employee) employees;\n  // addresses in the mapping, ever\n  address[] public addresses;\n\n  function size() external constant returns (uint16) {\n    return uint16(addresses.length);\n  }\n\n  function setEmployee(address e, uint32 issueDate, uint32 timeToSign, uint32 terminatedAt, uint32 fadeoutStarts,\n    uint32 poolOptions, uint32 extraOptions, uint32 suspendedAt, EmployeeState state)\n    external\n    onlyOwner\n    returns (bool isNew)\n  {\n    uint16 empIdx = employees[e].idx;\n    if (empIdx == 0) {\n      // new element\n      uint size = addresses.length;\n      if (size == 0xFFFF)\n        throw;\n      isNew = true;\n      empIdx = uint16(size + 1);\n      addresses.push(e);\n      CreateEmployee(e, poolOptions, extraOptions, empIdx);\n    } else {\n      isNew = false;\n      UpdateEmployee(e, poolOptions, extraOptions, empIdx);\n    }\n    employees[e] = Employee({\n        issueDate: issueDate,\n        timeToSign: timeToSign,\n        terminatedAt: terminatedAt,\n        fadeoutStarts: fadeoutStarts,\n        poolOptions: poolOptions,\n        extraOptions: extraOptions,\n        suspendedAt: suspendedAt,\n        state: state,\n        idx: empIdx\n      });\n  }\n\n  function changeState(address e, EmployeeState state)\n    external\n    onlyOwner\n  {\n    if (employees[e].idx == 0)\n      throw;\n    ChangeEmployeeState(e, employees[e].state, state);\n    employees[e].state = state;\n  }\n\n  function setFadeoutStarts(address e, uint32 fadeoutStarts)\n    external\n    onlyOwner\n  {\n    if (employees[e].idx == 0)\n      throw;\n    UpdateEmployee(e, employees[e].poolOptions, employees[e].extraOptions, employees[e].idx);\n    employees[e].fadeoutStarts = fadeoutStarts;\n  }\n\n  function removeEmployee(address e)\n    external\n    onlyOwner\n    returns (bool)\n  {\n    uint16 empIdx = employees[e].idx;\n    if (empIdx > 0) {\n        delete employees[e];\n        delete addresses[empIdx-1];\n        RemoveEmployee(e);\n        return true;\n    }\n    return false;\n  }\n\n  function terminateEmployee(address e, uint32 issueDate, uint32 terminatedAt, uint32 fadeoutStarts, EmployeeState state)\n    external\n    onlyOwner\n  {\n    if (state != EmployeeState.Terminated)\n        throw;\n    Employee employee = employees[e]; // gets reference to storage and optimizer does it with one SSTORE\n    if (employee.idx == 0)\n      throw;\n    ChangeEmployeeState(e, employee.state, state);\n    employee.state = state;\n    employee.issueDate = issueDate;\n    employee.terminatedAt = terminatedAt;\n    employee.fadeoutStarts = fadeoutStarts;\n    employee.suspendedAt = 0;\n    UpdateEmployee(e, employee.poolOptions, employee.extraOptions, employee.idx);\n  }\n\n  function getEmployee(address e)\n    external\n    constant\n    returns (uint32, uint32, uint32, uint32, uint32, uint32, uint32, EmployeeState)\n  {\n      Employee employee = employees[e];\n      if (employee.idx == 0)\n        throw;\n      // where is struct zip/unzip :>\n      return (employee.issueDate, employee.timeToSign, employee.terminatedAt, employee.fadeoutStarts,\n        employee.poolOptions, employee.extraOptions, employee.suspendedAt, employee.state);\n  }\n\n   function hasEmployee(address e)\n     external\n     constant\n     returns (bool)\n   {\n      // this is very inefficient - whole word is loaded just to check this\n      return employees[e].idx != 0;\n    }\n\n  function getSerializedEmployee(address e)\n    external\n    constant\n    returns (uint[9])\n  {\n    Employee memory employee = employees[e];\n    if (employee.idx == 0)\n      throw;\n    return serializeEmployee(employee);\n  }\n}\n",
  "sourcePath": "/home/ethnode/parity/ESOP/contracts/EmployeesList.sol",
  "compiler": {
    "name": "solc",
    "version": "0.4.19+commit.c4cbbb05.Emscripten.clang"
  },
  "schemaVersion": "2.0.0",
  "updatedAt": "2018-03-18T07:17:38.619Z"
}