{
  "contractName": "ERC20OptionsConverter",
  "abi": [
    {
      "constant": true,
      "inputs": [],
      "name": "totalSupply",
      "outputs": [
        {
          "name": "",
          "type": "uint256"
        }
      ],
      "payable": false,
      "stateMutability": "view",
      "type": "function"
    },
    {
      "constant": true,
      "inputs": [],
      "name": "FP_SCALE",
      "outputs": [
        {
          "name": "",
          "type": "uint256"
        }
      ],
      "payable": false,
      "stateMutability": "view",
      "type": "function"
    },
    {
      "constant": true,
      "inputs": [],
      "name": "optionsConversionDeadline",
      "outputs": [
        {
          "name": "",
          "type": "uint32"
        }
      ],
      "payable": false,
      "stateMutability": "view",
      "type": "function"
    },
    {
      "constant": true,
      "inputs": [
        {
          "name": "v1",
          "type": "uint256"
        },
        {
          "name": "v2",
          "type": "uint256"
        }
      ],
      "name": "absDiff",
      "outputs": [
        {
          "name": "",
          "type": "uint256"
        }
      ],
      "payable": false,
      "stateMutability": "view",
      "type": "function"
    },
    {
      "constant": false,
      "inputs": [
        {
          "name": "t",
          "type": "uint32"
        }
      ],
      "name": "mockTime",
      "outputs": [],
      "payable": false,
      "stateMutability": "nonpayable",
      "type": "function"
    },
    {
      "constant": true,
      "inputs": [
        {
          "name": "a",
          "type": "uint256"
        },
        {
          "name": "b",
          "type": "uint256"
        }
      ],
      "name": "safeMul",
      "outputs": [
        {
          "name": "",
          "type": "uint256"
        }
      ],
      "payable": false,
      "stateMutability": "view",
      "type": "function"
    },
    {
      "constant": true,
      "inputs": [],
      "name": "currentTime",
      "outputs": [
        {
          "name": "",
          "type": "uint32"
        }
      ],
      "payable": false,
      "stateMutability": "view",
      "type": "function"
    },
    {
      "inputs": [
        {
          "name": "esop",
          "type": "address"
        },
        {
          "name": "exerciseDeadline",
          "type": "uint32"
        },
        {
          "name": "conversionDeadline",
          "type": "uint32"
        }
      ],
      "payable": false,
      "stateMutability": "nonpayable",
      "type": "constructor"
    },
    {
      "payable": true,
      "stateMutability": "payable",
      "type": "fallback"
    },
    {
      "anonymous": false,
      "inputs": [
        {
          "indexed": true,
          "name": "from",
          "type": "address"
        },
        {
          "indexed": true,
          "name": "to",
          "type": "address"
        },
        {
          "indexed": false,
          "name": "value",
          "type": "uint256"
        }
      ],
      "name": "Transfer",
      "type": "event"
    },
    {
      "constant": true,
      "inputs": [],
      "name": "getESOP",
      "outputs": [
        {
          "name": "",
          "type": "address"
        }
      ],
      "payable": false,
      "stateMutability": "view",
      "type": "function"
    },
    {
      "constant": true,
      "inputs": [],
      "name": "getExercisePeriodDeadline",
      "outputs": [
        {
          "name": "",
          "type": "uint32"
        }
      ],
      "payable": false,
      "stateMutability": "view",
      "type": "function"
    },
    {
      "constant": false,
      "inputs": [
        {
          "name": "employee",
          "type": "address"
        },
        {
          "name": "poolOptions",
          "type": "uint256"
        },
        {
          "name": "extraOptions",
          "type": "uint256"
        },
        {
          "name": "bonusOptions",
          "type": "uint256"
        },
        {
          "name": "agreeToAcceleratedVestingBonusConditions",
          "type": "bool"
        }
      ],
      "name": "exerciseOptions",
      "outputs": [],
      "payable": false,
      "stateMutability": "nonpayable",
      "type": "function"
    },
    {
      "constant": false,
      "inputs": [
        {
          "name": "_to",
          "type": "address"
        },
        {
          "name": "_value",
          "type": "uint256"
        }
      ],
      "name": "transfer",
      "outputs": [],
      "payable": false,
      "stateMutability": "nonpayable",
      "type": "function"
    },
    {
      "constant": true,
      "inputs": [
        {
          "name": "_owner",
          "type": "address"
        }
      ],
      "name": "balanceOf",
      "outputs": [
        {
          "name": "balance",
          "type": "uint256"
        }
      ],
      "payable": false,
      "stateMutability": "view",
      "type": "function"
    }
  ],
  "bytecode": "0x6060604052341561000f57600080fd5b6040516060806109118339810160405280805190602001909190805190602001909190805190602001909190505082600060046101000a81548173ffffffffffffffffffffffffffffffffffffffff021916908373ffffffffffffffffffffffffffffffffffffffff16021790555081600060186101000a81548163ffffffff021916908363ffffffff16021790555080600360006101000a81548163ffffffff021916908363ffffffff16021790555050505061083f806100d26000396000f3006060604052600436106100ba576000357c0100000000000000000000000000000000000000000000000000000000900463ffffffff16806318160ddd146100bf5780635573a34c146100e857806370a08231146101115780638e6df32f1461015e5780639c55519b146101bd578063a09ae0aa146101f2578063a9059cbb14610232578063c4e7099f14610274578063d05c78da1461029d578063d18e81b3146102dd578063e1a7739c14610312578063f73c30e314610347575b600080fd5b34156100ca57600080fd5b6100d261039c565b6040518082815260200191505060405180910390f35b34156100f357600080fd5b6100fb6103a2565b6040518082815260200191505060405180910390f35b341561011c57600080fd5b610148600480803573ffffffffffffffffffffffffffffffffffffffff169060200190919050506103a8565b6040518082815260200191505060405180910390f35b341561016957600080fd5b6101bb600480803573ffffffffffffffffffffffffffffffffffffffff1690602001909190803590602001909190803590602001909190803590602001909190803515159060200190919050506103f1565b005b34156101c857600080fd5b6101d0610533565b604051808263ffffffff1663ffffffff16815260200191505060405180910390f35b34156101fd57600080fd5b61021c6004808035906020019091908035906020019091905050610549565b6040518082815260200191505060405180910390f35b341561023d57600080fd5b610272600480803573ffffffffffffffffffffffffffffffffffffffff16906020019091908035906020019091905050610566565b005b341561027f57600080fd5b61029b600480803563ffffffff169060200190919050506106e7565b005b34156102a857600080fd5b6102c7600480803590602001909190803590602001909190505061071a565b6040518082815260200191505060405180910390f35b34156102e857600080fd5b6102f0610754565b604051808263ffffffff1663ffffffff16815260200191505060405180910390f35b341561031d57600080fd5b6103256107a4565b604051808263ffffffff1663ffffffff16815260200191505060405180910390f35b341561035257600080fd5b61035a6107bd565b604051808273ffffffffffffffffffffffffffffffffffffffff1673ffffffffffffffffffffffffffffffffffffffff16815260200191505060405180910390f35b60025481565b61271081565b6000600160008373ffffffffffffffffffffffffffffffffffffffff1673ffffffffffffffffffffffffffffffffffffffff168152602001908152602001600020549050919050565b60006103fb6107bd565b73ffffffffffffffffffffffffffffffffffffffff163373ffffffffffffffffffffffffffffffffffffffff1614151561043457600080fd5b600060189054906101000a900463ffffffff1663ffffffff16610455610754565b63ffffffff1610151561046757600080fd5b61047a61047486866107e6565b846107e6565b9050610488600254826107e6565b60028190555080600160008873ffffffffffffffffffffffffffffffffffffffff1673ffffffffffffffffffffffffffffffffffffffff168152602001908152602001600020600082825401925050819055508573ffffffffffffffffffffffffffffffffffffffff1660007fddf252ad1be2c89b69c2b068fc378daa952ba7f163c4a11628f55a4df523b3ef836040518082815260200191505060405180910390a3505050505050565b600360009054906101000a900463ffffffff1681565b600081831161055a5782820361055e565b8183035b905092915050565b600360009054906101000a900463ffffffff1663ffffffff16610587610754565b63ffffffff16101561059857600080fd5b80600160003373ffffffffffffffffffffffffffffffffffffffff1673ffffffffffffffffffffffffffffffffffffffff1681526020019081526020016000205410156105e457600080fd5b80600160003373ffffffffffffffffffffffffffffffffffffffff1673ffffffffffffffffffffffffffffffffffffffff1681526020019081526020016000206000828254039250508190555080600160008473ffffffffffffffffffffffffffffffffffffffff1673ffffffffffffffffffffffffffffffffffffffff168152602001908152602001600020600082825401925050819055508173ffffffffffffffffffffffffffffffffffffffff163373ffffffffffffffffffffffffffffffffffffffff167fddf252ad1be2c89b69c2b068fc378daa952ba7f163c4a11628f55a4df523b3ef836040518082815260200191505060405180910390a35050565b6232993d4311156106f757600080fd5b806000806101000a81548163ffffffff021916908363ffffffff16021790555050565b6000808284029050600084148061073b575082848281151561073857fe5b04145b156107485780915061074d565b600080fd5b5092915050565b600063ffffffff42111561076757600080fd5b60008060009054906101000a900463ffffffff1663ffffffff161161078c574261079f565b6000809054906101000a900463ffffffff165b905090565b60008060189054906101000a900463ffffffff16905090565b60008060049054906101000a900473ffffffffffffffffffffffffffffffffffffffff16905090565b60008082840190508381101580156107fe5750828110155b151561080957600080fd5b80915050929150505600a165627a7a72305820f90bd2336cd4295196520c8aad48c05cbaf67ad72e1a842c1d364351c43043ba0029",
  "source": "pragma solidity ^0.4.11;\nimport './ESOPTypes.sol';\nimport './BaseOptionsConverter.sol';\n\n\ncontract ERC20OptionsConverter is BaseOptionsConverter, TimeSource, Math {\n  // see base class for explanations\n  address esopAddress;\n  uint32 exercisePeriodDeadline;\n  // balances for converted options\n  mapping(address => uint) internal balances;\n  // total supply\n  uint public totalSupply;\n\n  // deadline for all options conversion including company's actions\n  uint32 public optionsConversionDeadline;\n\n  event Transfer(address indexed from, address indexed to, uint value);\n\n  modifier converting() {\n    // throw after deadline\n    if (currentTime() >= exercisePeriodDeadline)\n      throw;\n    _;\n  }\n\n  modifier converted() {\n    // throw before deadline\n    if (currentTime() < optionsConversionDeadline)\n      throw;\n    _;\n  }\n\n\n  function getESOP() public constant returns (address) {\n    return esopAddress;\n  }\n\n  function getExercisePeriodDeadline() public constant returns(uint32) {\n    return exercisePeriodDeadline;\n  }\n\n  function exerciseOptions(address employee, uint poolOptions, uint extraOptions, uint bonusOptions,\n    bool agreeToAcceleratedVestingBonusConditions)\n    public\n    onlyESOP\n    converting\n  {\n    // if no overflow on totalSupply, no overflows later\n    uint options = safeAdd(safeAdd(poolOptions, extraOptions), bonusOptions);\n    totalSupply = safeAdd(totalSupply, options);\n    balances[employee] += options;\n    Transfer(0, employee, options);\n  }\n\n  function transfer(address _to, uint _value) converted public {\n    if (balances[msg.sender] < _value)\n      throw;\n    balances[msg.sender] -= _value;\n    balances[_to] += _value;\n    Transfer(msg.sender, _to, _value);\n  }\n\n  function balanceOf(address _owner) constant public returns (uint balance) {\n    return balances[_owner];\n  }\n\n  function () payable {\n    throw;\n  }\n\n  function ERC20OptionsConverter(address esop, uint32 exerciseDeadline, uint32 conversionDeadline) {\n    esopAddress = esop;\n    exercisePeriodDeadline = exerciseDeadline;\n    optionsConversionDeadline = conversionDeadline;\n  }\n}\n",
  "sourcePath": "/home/ethnode/parity/ESOP/contracts/ERC20OptionsConverter.sol",
  "compiler": {
    "name": "solc",
    "version": "0.4.19+commit.c4cbbb05.Emscripten.clang"
  },
  "schemaVersion": "2.0.0",
  "updatedAt": "2018-03-18T07:17:38.499Z"
}