{
  "contractName": "ESOP",
  "abi": [
    {
      "constant": true,
      "inputs": [],
      "name": "employees",
      "outputs": [
        {
          "name": "",
          "type": "address"
        }
      ],
      "payable": false,
      "stateMutability": "view",
      "type": "function"
    },
    {
      "constant": true,
      "inputs": [],
      "name": "exerciseOptionsDeadline",
      "outputs": [
        {
          "name": "",
          "type": "uint32"
        }
      ],
      "payable": false,
      "stateMutability": "view",
      "type": "function"
    },
    {
      "constant": true,
      "inputs": [],
      "name": "totalExtraOptions",
      "outputs": [
        {
          "name": "",
          "type": "uint256"
        }
      ],
      "payable": false,
      "stateMutability": "view",
      "type": "function"
    },
    {
      "constant": true,
      "inputs": [],
      "name": "MINIMUM_MANUAL_SIGN_PERIOD",
      "outputs": [
        {
          "name": "",
          "type": "uint32"
        }
      ],
      "payable": false,
      "stateMutability": "view",
      "type": "function"
    },
    {
      "constant": true,
      "inputs": [],
      "name": "esopState",
      "outputs": [
        {
          "name": "",
          "type": "uint8"
        }
      ],
      "payable": false,
      "stateMutability": "view",
      "type": "function"
    },
    {
      "constant": true,
      "inputs": [],
      "name": "rootOfTrust",
      "outputs": [
        {
          "name": "",
          "type": "address"
        }
      ],
      "payable": false,
      "stateMutability": "view",
      "type": "function"
    },
    {
      "constant": true,
      "inputs": [],
      "name": "companyAddress",
      "outputs": [
        {
          "name": "",
          "type": "address"
        }
      ],
      "payable": false,
      "stateMutability": "view",
      "type": "function"
    },
    {
      "constant": true,
      "inputs": [],
      "name": "optionsCalculator",
      "outputs": [
        {
          "name": "",
          "type": "address"
        }
      ],
      "payable": false,
      "stateMutability": "view",
      "type": "function"
    },
    {
      "constant": true,
      "inputs": [],
      "name": "codeUpdateState",
      "outputs": [
        {
          "name": "",
          "type": "uint8"
        }
      ],
      "payable": false,
      "stateMutability": "view",
      "type": "function"
    },
    {
      "constant": true,
      "inputs": [],
      "name": "owner",
      "outputs": [
        {
          "name": "",
          "type": "address"
        }
      ],
      "payable": false,
      "stateMutability": "view",
      "type": "function"
    },
    {
      "constant": false,
      "inputs": [],
      "name": "cancelCodeUpdate",
      "outputs": [],
      "payable": false,
      "stateMutability": "nonpayable",
      "type": "function"
    },
    {
      "constant": true,
      "inputs": [],
      "name": "ESOPLegalWrapperIPFSHash",
      "outputs": [
        {
          "name": "",
          "type": "bytes"
        }
      ],
      "payable": false,
      "stateMutability": "view",
      "type": "function"
    },
    {
      "constant": true,
      "inputs": [],
      "name": "conversionOfferedAt",
      "outputs": [
        {
          "name": "",
          "type": "uint32"
        }
      ],
      "payable": false,
      "stateMutability": "view",
      "type": "function"
    },
    {
      "constant": true,
      "inputs": [],
      "name": "remainingPoolOptions",
      "outputs": [
        {
          "name": "",
          "type": "uint256"
        }
      ],
      "payable": false,
      "stateMutability": "view",
      "type": "function"
    },
    {
      "constant": false,
      "inputs": [],
      "name": "beginCodeUpdate",
      "outputs": [],
      "payable": false,
      "stateMutability": "nonpayable",
      "type": "function"
    },
    {
      "constant": false,
      "inputs": [
        {
          "name": "t",
          "type": "uint32"
        }
      ],
      "name": "mockTime",
      "outputs": [],
      "payable": false,
      "stateMutability": "nonpayable",
      "type": "function"
    },
    {
      "constant": true,
      "inputs": [],
      "name": "currentTime",
      "outputs": [
        {
          "name": "",
          "type": "uint32"
        }
      ],
      "payable": false,
      "stateMutability": "view",
      "type": "function"
    },
    {
      "constant": true,
      "inputs": [],
      "name": "optionsConverter",
      "outputs": [
        {
          "name": "",
          "type": "address"
        }
      ],
      "payable": false,
      "stateMutability": "view",
      "type": "function"
    },
    {
      "constant": true,
      "inputs": [],
      "name": "totalPoolOptions",
      "outputs": [
        {
          "name": "",
          "type": "uint256"
        }
      ],
      "payable": false,
      "stateMutability": "view",
      "type": "function"
    },
    {
      "constant": false,
      "inputs": [
        {
          "name": "newOwner",
          "type": "address"
        }
      ],
      "name": "transferOwnership",
      "outputs": [],
      "payable": false,
      "stateMutability": "nonpayable",
      "type": "function"
    },
    {
      "inputs": [
        {
          "name": "company",
          "type": "address"
        },
        {
          "name": "pRootOfTrust",
          "type": "address"
        },
        {
          "name": "pOptionsCalculator",
          "type": "address"
        },
        {
          "name": "pEmployeesList",
          "type": "address"
        }
      ],
      "payable": false,
      "stateMutability": "nonpayable",
      "type": "constructor"
    },
    {
      "payable": true,
      "stateMutability": "payable",
      "type": "fallback"
    },
    {
      "anonymous": false,
      "inputs": [
        {
          "indexed": true,
          "name": "employee",
          "type": "address"
        },
        {
          "indexed": false,
          "name": "company",
          "type": "address"
        },
        {
          "indexed": false,
          "name": "poolOptions",
          "type": "uint32"
        },
        {
          "indexed": false,
          "name": "extraOptions",
          "type": "uint32"
        }
      ],
      "name": "ESOPOffered",
      "type": "event"
    },
    {
      "anonymous": false,
      "inputs": [
        {
          "indexed": true,
          "name": "employee",
          "type": "address"
        }
      ],
      "name": "EmployeeSignedToESOP",
      "type": "event"
    },
    {
      "anonymous": false,
      "inputs": [
        {
          "indexed": true,
          "name": "employee",
          "type": "address"
        },
        {
          "indexed": false,
          "name": "suspendedAt",
          "type": "uint32"
        }
      ],
      "name": "SuspendEmployee",
      "type": "event"
    },
    {
      "anonymous": false,
      "inputs": [
        {
          "indexed": true,
          "name": "employee",
          "type": "address"
        },
        {
          "indexed": false,
          "name": "continuedAt",
          "type": "uint32"
        },
        {
          "indexed": false,
          "name": "suspendedPeriod",
          "type": "uint32"
        }
      ],
      "name": "ContinueSuspendedEmployee",
      "type": "event"
    },
    {
      "anonymous": false,
      "inputs": [
        {
          "indexed": true,
          "name": "employee",
          "type": "address"
        },
        {
          "indexed": false,
          "name": "company",
          "type": "address"
        },
        {
          "indexed": false,
          "name": "terminatedAt",
          "type": "uint32"
        },
        {
          "indexed": false,
          "name": "termType",
          "type": "uint8"
        }
      ],
      "name": "TerminateEmployee",
      "type": "event"
    },
    {
      "anonymous": false,
      "inputs": [
        {
          "indexed": true,
          "name": "employee",
          "type": "address"
        },
        {
          "indexed": false,
          "name": "exercisedFor",
          "type": "address"
        },
        {
          "indexed": false,
          "name": "poolOptions",
          "type": "uint32"
        },
        {
          "indexed": false,
          "name": "disableAcceleratedVesting",
          "type": "bool"
        }
      ],
      "name": "EmployeeOptionsExercised",
      "type": "event"
    },
    {
      "anonymous": false,
      "inputs": [
        {
          "indexed": true,
          "name": "employee",
          "type": "address"
        },
        {
          "indexed": false,
          "name": "migration",
          "type": "address"
        },
        {
          "indexed": false,
          "name": "pool",
          "type": "uint256"
        },
        {
          "indexed": false,
          "name": "extra",
          "type": "uint256"
        }
      ],
      "name": "EmployeeMigrated",
      "type": "event"
    },
    {
      "anonymous": false,
      "inputs": [
        {
          "indexed": false,
          "name": "company",
          "type": "address"
        }
      ],
      "name": "ESOPOpened",
      "type": "event"
    },
    {
      "anonymous": false,
      "inputs": [
        {
          "indexed": false,
          "name": "company",
          "type": "address"
        },
        {
          "indexed": false,
          "name": "converter",
          "type": "address"
        },
        {
          "indexed": false,
          "name": "convertedAt",
          "type": "uint32"
        },
        {
          "indexed": false,
          "name": "exercisePeriodDeadline",
          "type": "uint32"
        }
      ],
      "name": "OptionsConversionOffered",
      "type": "event"
    },
    {
      "anonymous": false,
      "inputs": [
        {
          "indexed": false,
          "name": "rc",
          "type": "uint8"
        }
      ],
      "name": "ReturnCode",
      "type": "event"
    },
    {
      "constant": false,
      "inputs": [],
      "name": "removeEmployeesWithExpiredSignaturesAndReturnFadeout",
      "outputs": [],
      "payable": false,
      "stateMutability": "nonpayable",
      "type": "function"
    },
    {
      "constant": false,
      "inputs": [
        {
          "name": "pTotalPoolOptions",
          "type": "uint32"
        },
        {
          "name": "pESOPLegalWrapperIPFSHash",
          "type": "bytes"
        }
      ],
      "name": "openESOP",
      "outputs": [
        {
          "name": "",
          "type": "uint8"
        }
      ],
      "payable": false,
      "stateMutability": "nonpayable",
      "type": "function"
    },
    {
      "constant": false,
      "inputs": [
        {
          "name": "e",
          "type": "address"
        },
        {
          "name": "issueDate",
          "type": "uint32"
        },
        {
          "name": "timeToSign",
          "type": "uint32"
        },
        {
          "name": "extraOptions",
          "type": "uint32"
        },
        {
          "name": "poolCleanup",
          "type": "bool"
        }
      ],
      "name": "offerOptionsToEmployee",
      "outputs": [
        {
          "name": "",
          "type": "uint8"
        }
      ],
      "payable": false,
      "stateMutability": "nonpayable",
      "type": "function"
    },
    {
      "constant": false,
      "inputs": [
        {
          "name": "e",
          "type": "address"
        },
        {
          "name": "issueDate",
          "type": "uint32"
        },
        {
          "name": "timeToSign",
          "type": "uint32"
        },
        {
          "name": "extraOptions",
          "type": "uint32"
        }
      ],
      "name": "offerOptionsToEmployeeOnlyExtra",
      "outputs": [
        {
          "name": "",
          "type": "uint8"
        }
      ],
      "payable": false,
      "stateMutability": "nonpayable",
      "type": "function"
    },
    {
      "constant": false,
      "inputs": [
        {
          "name": "e",
          "type": "address"
        },
        {
          "name": "extraOptions",
          "type": "uint32"
        }
      ],
      "name": "increaseEmployeeExtraOptions",
      "outputs": [
        {
          "name": "",
          "type": "uint8"
        }
      ],
      "payable": false,
      "stateMutability": "nonpayable",
      "type": "function"
    },
    {
      "constant": false,
      "inputs": [],
      "name": "employeeSignsToESOP",
      "outputs": [
        {
          "name": "",
          "type": "uint8"
        }
      ],
      "payable": false,
      "stateMutability": "nonpayable",
      "type": "function"
    },
    {
      "constant": false,
      "inputs": [
        {
          "name": "e",
          "type": "address"
        },
        {
          "name": "toggledAt",
          "type": "uint32"
        }
      ],
      "name": "toggleEmployeeSuspension",
      "outputs": [
        {
          "name": "",
          "type": "uint8"
        }
      ],
      "payable": false,
      "stateMutability": "nonpayable",
      "type": "function"
    },
    {
      "constant": false,
      "inputs": [
        {
          "name": "e",
          "type": "address"
        },
        {
          "name": "terminatedAt",
          "type": "uint32"
        },
        {
          "name": "terminationType",
          "type": "uint8"
        }
      ],
      "name": "terminateEmployee",
      "outputs": [
        {
          "name": "",
          "type": "uint8"
        }
      ],
      "payable": false,
      "stateMutability": "nonpayable",
      "type": "function"
    },
    {
      "constant": false,
      "inputs": [
        {
          "name": "converter",
          "type": "address"
        }
      ],
      "name": "offerOptionsConversion",
      "outputs": [
        {
          "name": "",
          "type": "uint8"
        }
      ],
      "payable": false,
      "stateMutability": "nonpayable",
      "type": "function"
    },
    {
      "constant": false,
      "inputs": [
        {
          "name": "agreeToAcceleratedVestingBonusConditions",
          "type": "bool"
        }
      ],
      "name": "employeeExerciseOptions",
      "outputs": [
        {
          "name": "",
          "type": "uint8"
        }
      ],
      "payable": false,
      "stateMutability": "nonpayable",
      "type": "function"
    },
    {
      "constant": false,
      "inputs": [],
      "name": "employeeDenyExerciseOptions",
      "outputs": [
        {
          "name": "",
          "type": "uint8"
        }
      ],
      "payable": false,
      "stateMutability": "nonpayable",
      "type": "function"
    },
    {
      "constant": false,
      "inputs": [
        {
          "name": "e",
          "type": "address"
        },
        {
          "name": "disableAcceleratedVesting",
          "type": "bool"
        }
      ],
      "name": "exerciseExpiredEmployeeOptions",
      "outputs": [
        {
          "name": "",
          "type": "uint8"
        }
      ],
      "payable": false,
      "stateMutability": "nonpayable",
      "type": "function"
    },
    {
      "constant": false,
      "inputs": [
        {
          "name": "employee",
          "type": "address"
        },
        {
          "name": "migration",
          "type": "address"
        }
      ],
      "name": "allowEmployeeMigration",
      "outputs": [
        {
          "name": "",
          "type": "uint8"
        }
      ],
      "payable": false,
      "stateMutability": "nonpayable",
      "type": "function"
    },
    {
      "constant": false,
      "inputs": [
        {
          "name": "migration",
          "type": "address"
        }
      ],
      "name": "employeeMigratesToNewESOP",
      "outputs": [
        {
          "name": "",
          "type": "uint8"
        }
      ],
      "payable": false,
      "stateMutability": "nonpayable",
      "type": "function"
    },
    {
      "constant": true,
      "inputs": [
        {
          "name": "e",
          "type": "address"
        },
        {
          "name": "calcAtTime",
          "type": "uint32"
        }
      ],
      "name": "calcEffectiveOptionsForEmployee",
      "outputs": [
        {
          "name": "",
          "type": "uint256"
        }
      ],
      "payable": false,
      "stateMutability": "view",
      "type": "function"
    },
    {
      "constant": false,
      "inputs": [],
      "name": "completeCodeUpdate",
      "outputs": [],
      "payable": false,
      "stateMutability": "nonpayable",
      "type": "function"
    }
  ],
  "bytecode": "0x6060604052341561000f57600080fd5b60405160808062005aab83398101604052808051906020019091908051906020019091908051906020019091908051906020019091905050336000806101000a81548173ffffffffffffffffffffffffffffffffffffffff021916908373ffffffffffffffffffffffffffffffffffffffff16021790555083600460006101000a81548173ffffffffffffffffffffffffffffffffffffffff021916908373ffffffffffffffffffffffffffffffffffffffff16021790555082600560006101000a81548173ffffffffffffffffffffffffffffffffffffffff021916908373ffffffffffffffffffffffffffffffffffffffff16021790555080600760016101000a81548173ffffffffffffffffffffffffffffffffffffffff021916908373ffffffffffffffffffffffffffffffffffffffff16021790555081600160006101000a81548173ffffffffffffffffffffffffffffffffffffffff021916908373ffffffffffffffffffffffffffffffffffffffff1602179055505050505061590c806200019f6000396000f3006060604052600436106101c2576000357c0100000000000000000000000000000000000000000000000000000000900463ffffffff16806306adb71d146101c757806311e14b2e146102315780632059c548146102865780632b04451a146102bb5780632b0fdb72146102e45780632cfd35bb146103195780633890d77f1461037457806343160e3d146103ab5780634c382d99146104005780634dec5dc41461047657806353e1ead9146104bd5780636201124f1461051257806372e3c5c214610549578063736ead2c146105b357806379a958c21461060857806379b45b181461063f5780638769beea146106545780638da5cb5b146106b3578063950dff20146107085780639a483a8e1461071d5780639afec0ae14610783578063a553758614610811578063aa864e4914610846578063afc2f5031461086f578063b791e8ed146108e9578063ba3f41da14610945578063c344cdd21461095a578063c4e7099f146109b5578063c85c75b2146109de578063cc96b943146109f3578063d18e81b314610a86578063d2e3646c14610abb578063d852748c14610b10578063f2fde38b14610b39578063fa66e14314610b72578063fb062a8414610ba9575b600080fd5b34156101d257600080fd5b61020d600480803573ffffffffffffffffffffffffffffffffffffffff1690602001909190803563ffffffff16906020019091905050610c31565b6040518082600481111561021d57fe5b60ff16815260200191505060405180910390f35b341561023c57600080fd5b610244610f5c565b604051808273ffffffffffffffffffffffffffffffffffffffff1673ffffffffffffffffffffffffffffffffffffffff16815260200191505060405180910390f35b341561029157600080fd5b610299610f82565b604051808263ffffffff1663ffffffff16815260200191505060405180910390f35b34156102c657600080fd5b6102ce610f98565b6040518082815260200191505060405180910390f35b34156102ef57600080fd5b6102f7610f9e565b604051808263ffffffff1663ffffffff16815260200191505060405180910390f35b341561032457600080fd5b610350600480803573ffffffffffffffffffffffffffffffffffffffff16906020019091905050610fa5565b6040518082600481111561036057fe5b60ff16815260200191505060405180910390f35b341561037f57600080fd5b61038761167d565b6040518082600281111561039757fe5b60ff16815260200191505060405180910390f35b34156103b657600080fd5b6103be611690565b604051808273ffffffffffffffffffffffffffffffffffffffff1673ffffffffffffffffffffffffffffffffffffffff16815260200191505060405180910390f35b341561040b57600080fd5b610452600480803573ffffffffffffffffffffffffffffffffffffffff1690602001909190803563ffffffff1690602001909190803560ff169060200190919050506116b6565b6040518082600481111561046257fe5b60ff16815260200191505060405180910390f35b341561048157600080fd5b61049960048080351515906020019091905050611eb5565b604051808260048111156104a957fe5b60ff16815260200191505060405180910390f35b34156104c857600080fd5b6104d0612063565b604051808273ffffffffffffffffffffffffffffffffffffffff1673ffffffffffffffffffffffffffffffffffffffff16815260200191505060405180910390f35b341561051d57600080fd5b610525612089565b6040518082600481111561053557fe5b60ff16815260200191505060405180910390f35b341561055457600080fd5b61058f600480803573ffffffffffffffffffffffffffffffffffffffff1690602001909190803563ffffffff16906020019091905050612236565b6040518082600481111561059f57fe5b60ff16815260200191505060405180910390f35b34156105be57600080fd5b6105c66125ac565b604051808273ffffffffffffffffffffffffffffffffffffffff1673ffffffffffffffffffffffffffffffffffffffff16815260200191505060405180910390f35b341561061357600080fd5b61061b6125d2565b6040518082600181111561062b57fe5b60ff16815260200191505060405180910390f35b341561064a57600080fd5b6106526125e5565b005b341561065f57600080fd5b61068f600480803563ffffffff169060200190919080359060200190820180359060200191909192905050612cb9565b6040518082600481111561069f57fe5b60ff16815260200191505060405180910390f35b34156106be57600080fd5b6106c6612e90565b604051808273ffffffffffffffffffffffffffffffffffffffff1673ffffffffffffffffffffffffffffffffffffffff16815260200191505060405180910390f35b341561071357600080fd5b61071b612eb5565b005b341561072857600080fd5b61075f600480803573ffffffffffffffffffffffffffffffffffffffff169060200190919080351515906020019091905050612f68565b6040518082600481111561076f57fe5b60ff16815260200191505060405180910390f35b341561078e57600080fd5b610796613195565b6040518080602001828103825283818151815260200191508051906020019080838360005b838110156107d65780820151818401526020810190506107bb565b50505050905090810190601f1680156108035780820380516001836020036101000a031916815260200191505b509250505060405180910390f35b341561081c57600080fd5b610824613233565b604051808263ffffffff1663ffffffff16815260200191505060405180910390f35b341561085157600080fd5b610859613249565b6040518082815260200191505060405180910390f35b341561087a57600080fd5b6108c5600480803573ffffffffffffffffffffffffffffffffffffffff1690602001909190803573ffffffffffffffffffffffffffffffffffffffff1690602001909190505061324f565b604051808260048111156108d557fe5b60ff16815260200191505060405180910390f35b34156108f457600080fd5b61092f600480803573ffffffffffffffffffffffffffffffffffffffff1690602001909190803563ffffffff1690602001909190505061351f565b6040518082815260200191505060405180910390f35b341561095057600080fd5b610958613851565b005b341561096557600080fd5b610991600480803573ffffffffffffffffffffffffffffffffffffffff16906020019091905050613906565b604051808260048111156109a157fe5b60ff16815260200191505060405180910390f35b34156109c057600080fd5b6109dc600480803563ffffffff16906020019091905050613d86565b005b34156109e957600080fd5b6109f1613dba565b005b34156109fe57600080fd5b610a62600480803573ffffffffffffffffffffffffffffffffffffffff1690602001909190803563ffffffff1690602001909190803563ffffffff1690602001909190803563ffffffff169060200190919080351515906020019091905050613f22565b60405180826004811115610a7257fe5b60ff16815260200191505060405180910390f35b3415610a9157600080fd5b610a99614375565b604051808263ffffffff1663ffffffff16815260200191505060405180910390f35b3415610ac657600080fd5b610ace6143c6565b604051808273ffffffffffffffffffffffffffffffffffffffff1673ffffffffffffffffffffffffffffffffffffffff16815260200191505060405180910390f35b3415610b1b57600080fd5b610b236143ec565b6040518082815260200191505060405180910390f35b3415610b4457600080fd5b610b70600480803573ffffffffffffffffffffffffffffffffffffffff169060200190919050506143f2565b005b3415610b7d57600080fd5b610b856144c7565b60405180826004811115610b9557fe5b60ff16815260200191505060405180910390f35b3415610bb457600080fd5b610c0d600480803573ffffffffffffffffffffffffffffffffffffffff1690602001909190803563ffffffff1690602001909190803563ffffffff1690602001909190803563ffffffff169060200190919050506148f6565b60405180826004811115610c1d57fe5b60ff16815260200191505060405180910390f35b6000610c3b61578c565b60016002811115610c4857fe5b600760009054906101000a900460ff166002811115610c6357fe5b141515610c6f57600080fd5b3373ffffffffffffffffffffffffffffffffffffffff16600460009054906101000a900473ffffffffffffffffffffffffffffffffffffffff1673ffffffffffffffffffffffffffffffffffffffff16141515610ccb57600080fd5b60006001811115610cd857fe5b600060149054906101000a900460ff166001811115610cf357fe5b141515610cff57600080fd5b83600760019054906101000a900473ffffffffffffffffffffffffffffffffffffffff1673ffffffffffffffffffffffffffffffffffffffff166307716dd2826000604051602001526040518263ffffffff167c0100000000000000000000000000000000000000000000000000000000028152600401808273ffffffffffffffffffffffffffffffffffffffff1673ffffffffffffffffffffffffffffffffffffffff168152602001915050602060405180830381600087803b1515610dc557600080fd5b6102c65a03f11515610dd657600080fd5b505050604051805190501515610deb57600080fd5b610df485614c5a565b915060026004811115610e0357fe5b8260e001516004811115610e1357fe5b14158015610e3c575060016004811115610e2957fe5b8260e001516004811115610e3957fe5b14155b15610e5257610e4b6001614d57565b9250610f54565b838260a0018181510191509063ffffffff16908163ffffffff1681525050610e7a8583614da6565b8363ffffffff166008600082825401925050819055508473ffffffffffffffffffffffffffffffffffffffff167f20eea675d38b6201dfef10fe1b4211fc58b92a6be381b306500ebb90fdd2f8b2600460009054906101000a900473ffffffffffffffffffffffffffffffffffffffff16600087604051808473ffffffffffffffffffffffffffffffffffffffff1673ffffffffffffffffffffffffffffffffffffffff1681526020018363ffffffff1681526020018263ffffffff1663ffffffff168152602001935050505060405180910390a2600092505b505092915050565b600760019054906101000a900473ffffffffffffffffffffffffffffffffffffffff1681565b600960049054906101000a900463ffffffff1681565b60085481565b6212750081565b6000610faf61578c565b600080600060016002811115610fc157fe5b600760009054906101000a900460ff166002811115610fdc57fe5b141515610fe857600080fd5b33600760019054906101000a900473ffffffffffffffffffffffffffffffffffffffff1673ffffffffffffffffffffffffffffffffffffffff166307716dd2826000604051602001526040518263ffffffff167c0100000000000000000000000000000000000000000000000000000000028152600401808273ffffffffffffffffffffffffffffffffffffffff1673ffffffffffffffffffffffffffffffffffffffff168152602001915050602060405180830381600087803b15156110ae57600080fd5b6102c65a03f115156110bf57600080fd5b5050506040518051905015156110d457600080fd5b600060018111156110e157fe5b600060149054906101000a900460ff1660018111156110fc57fe5b14151561110857600080fd5b60008773ffffffffffffffffffffffffffffffffffffffff1614806111b857508673ffffffffffffffffffffffffffffffffffffffff16600a60003373ffffffffffffffffffffffffffffffffffffffff1673ffffffffffffffffffffffffffffffffffffffff16815260200190815260200160002060009054906101000a900473ffffffffffffffffffffffffffffffffffffffff1673ffffffffffffffffffffffffffffffffffffffff1614155b156111c257600080fd5b6111ca6125e5565b6111d333614c5a565b9450600260048111156111e257fe5b8560e0015160048111156111f257fe5b1415801561121b57506003600481111561120857fe5b8560e00151600481111561121857fe5b14155b156112315761122a6001614d57565b9550611673565b600160009054906101000a900473ffffffffffffffffffffffffffffffffffffffff1673ffffffffffffffffffffffffffffffffffffffff1663ec4bfdd461127887614f4d565b611280614375565b6000806000604051606001526040518563ffffffff167c01000000000000000000000000000000000000000000000000000000000281526004018085600960200280838360005b838110156112e25780820151818401526020810190506112c7565b505050509050018463ffffffff1663ffffffff1681526020018363ffffffff16815260200182151515158152602001945050505050606060405180830381600087803b151561133057600080fd5b6102c65a03f1151561134157600080fd5b50505060405180519060200180519060200180519050935093509350600a60003373ffffffffffffffffffffffffffffffffffffffff1673ffffffffffffffffffffffffffffffffffffffff16815260200190815260200160002060006101000a81549073ffffffffffffffffffffffffffffffffffffffff02191690558673ffffffffffffffffffffffffffffffffffffffff1663fc22d0e53386866040518463ffffffff167c0100000000000000000000000000000000000000000000000000000000028152600401808473ffffffffffffffffffffffffffffffffffffffff1673ffffffffffffffffffffffffffffffffffffffff1681526020018381526020018281526020019350505050600060405180830381600087803b151561146957600080fd5b6102c65a03f1151561147a57600080fd5b5050506002600481111561148a57fe5b8560e00151600481111561149a57fe5b146114a557826114b1565b8460a0015163ffffffff165b600860008282540392505081905550600260048111156114cd57fe5b8560e0015160048111156114dd57fe5b146114e857836114f4565b846080015163ffffffff165b600260008282540392505081905550600760019054906101000a900473ffffffffffffffffffffffffffffffffffffffff1673ffffffffffffffffffffffffffffffffffffffff1663d108177a336000604051602001526040518263ffffffff167c0100000000000000000000000000000000000000000000000000000000028152600401808273ffffffffffffffffffffffffffffffffffffffff1673ffffffffffffffffffffffffffffffffffffffff168152602001915050602060405180830381600087803b15156115c857600080fd5b6102c65a03f115156115d957600080fd5b50505060405180519050503373ffffffffffffffffffffffffffffffffffffffff167fa2b60f437b09871b72346a12264375fdf4a272a23df50039401a420a0727e317888686604051808473ffffffffffffffffffffffffffffffffffffffff1673ffffffffffffffffffffffffffffffffffffffff168152602001838152602001828152602001935050505060405180910390a2600095505b5050505050919050565b600760009054906101000a900460ff1681565b600560009054906101000a900473ffffffffffffffffffffffffffffffffffffffff1681565b6000806116c161578c565b600080600160028111156116d157fe5b600760009054906101000a900460ff1660028111156116ec57fe5b1415156116f857600080fd5b3373ffffffffffffffffffffffffffffffffffffffff16600460009054906101000a900473ffffffffffffffffffffffffffffffffffffffff1673ffffffffffffffffffffffffffffffffffffffff1614151561175457600080fd5b87600760019054906101000a900473ffffffffffffffffffffffffffffffffffffffff1673ffffffffffffffffffffffffffffffffffffffff166307716dd2826000604051602001526040518263ffffffff167c0100000000000000000000000000000000000000000000000000000000028152600401808273ffffffffffffffffffffffffffffffffffffffff1673ffffffffffffffffffffffffffffffffffffffff168152602001915050602060405180830381600087803b151561181a57600080fd5b6102c65a03f1151561182b57600080fd5b50505060405180519050151561184057600080fd5b6000600181111561184d57fe5b600060149054906101000a900460ff16600181111561186857fe5b14151561187457600080fd5b8660ff16600181111561188357fe5b945061188e89614c5a565b9350836000015163ffffffff168863ffffffff1610156118b9576118b26003614d57565b9550611ea9565b600160048111156118c657fe5b8460e0015160048111156118d657fe5b14156118e5576001945061191b565b600260048111156118f257fe5b8460e00151600481111561190257fe5b14151561191a576119136001614d57565b9550611ea9565b5b6000600181111561192857fe5b85600181111561193457fe5b1415611c915760008460c0015163ffffffff1611801561196357508763ffffffff168460c0015163ffffffff16105b1561198d578360c001518803846000018181510191509063ffffffff16908163ffffffff16815250505b600160009054906101000a900473ffffffffffffffffffffffffffffffffffffffff1673ffffffffffffffffffffffffffffffffffffffff16632c24461889866000015187608001516000604051602001526040518463ffffffff167c0100000000000000000000000000000000000000000000000000000000028152600401808463ffffffff1681526020018363ffffffff1681526020018263ffffffff1681526020019350505050602060405180830381600087803b1515611a5057600080fd5b6102c65a03f11515611a6157600080fd5b50505060405180519050846080015163ffffffff16039250600160009054906101000a900473ffffffffffffffffffffffffffffffffffffffff1673ffffffffffffffffffffffffffffffffffffffff16632c2446188986600001518760a001516000604051602001526040518463ffffffff167c0100000000000000000000000000000000000000000000000000000000028152600401808463ffffffff1681526020018363ffffffff1681526020018263ffffffff1681526020019350505050602060405180830381600087803b1515611b3c57600080fd5b6102c65a03f11515611b4d57600080fd5b505050604051805190508460a0015163ffffffff16039150600760019054906101000a900473ffffffffffffffffffffffffffffffffffffffff1673ffffffffffffffffffffffffffffffffffffffff1663281336b48a86600001518b8c60036040518663ffffffff167c0100000000000000000000000000000000000000000000000000000000028152600401808673ffffffffffffffffffffffffffffffffffffffff1673ffffffffffffffffffffffffffffffffffffffff1681526020018563ffffffff1663ffffffff1681526020018463ffffffff1663ffffffff1681526020018363ffffffff1663ffffffff168152602001826004811115611c5057fe5b60ff16815260200195505050505050600060405180830381600087803b1515611c7857600080fd5b6102c65a03f11515611c8957600080fd5b505050611dac565b600180811115611c9d57fe5b856001811115611ca957fe5b1415611dab57836080015163ffffffff1692508360a0015163ffffffff169150600760019054906101000a900473ffffffffffffffffffffffffffffffffffffffff1673ffffffffffffffffffffffffffffffffffffffff1663d108177a8a6000604051602001526040518263ffffffff167c0100000000000000000000000000000000000000000000000000000000028152600401808273ffffffffffffffffffffffffffffffffffffffff1673ffffffffffffffffffffffffffffffffffffffff168152602001915050602060405180830381600087803b1515611d8e57600080fd5b6102c65a03f11515611d9f57600080fd5b50505060405180519050505b5b611dbf8385610100015161ffff16614f5d565b600660008282540192505081905550816008600082825403925050819055508873ffffffffffffffffffffffffffffffffffffffff167fe50007b93d68f8c61678fdbb36438f34cd76aeeba091445432b39cf3cff7edc0600460009054906101000a900473ffffffffffffffffffffffffffffffffffffffff168a88604051808473ffffffffffffffffffffffffffffffffffffffff1673ffffffffffffffffffffffffffffffffffffffff1681526020018363ffffffff1663ffffffff168152602001826001811115611e8f57fe5b60ff168152602001935050505060405180910390a2600095505b50505050509392505050565b600080600280811115611ec457fe5b600760009054906101000a900460ff166002811115611edf57fe5b141515611eeb57600080fd5b33600760019054906101000a900473ffffffffffffffffffffffffffffffffffffffff1673ffffffffffffffffffffffffffffffffffffffff166307716dd2826000604051602001526040518263ffffffff167c0100000000000000000000000000000000000000000000000000000000028152600401808273ffffffffffffffffffffffffffffffffffffffff1673ffffffffffffffffffffffffffffffffffffffff168152602001915050602060405180830381600087803b1515611fb157600080fd5b6102c65a03f11515611fc257600080fd5b505050604051805190501515611fd757600080fd5b60006001811115611fe457fe5b600060149054906101000a900460ff166001811115611fff57fe5b14151561200b57600080fd5b612013614375565b9150600960049054906101000a900463ffffffff1663ffffffff168263ffffffff16111561204c576120456002614d57565b925061205c565b6120598233338715615268565b92505b5050919050565b600460009054906101000a900473ffffffffffffffffffffffffffffffffffffffff1681565b60008060028081111561209857fe5b600760009054906101000a900460ff1660028111156120b357fe5b1415156120bf57600080fd5b33600760019054906101000a900473ffffffffffffffffffffffffffffffffffffffff1673ffffffffffffffffffffffffffffffffffffffff166307716dd2826000604051602001526040518263ffffffff167c0100000000000000000000000000000000000000000000000000000000028152600401808273ffffffffffffffffffffffffffffffffffffffff1673ffffffffffffffffffffffffffffffffffffffff168152602001915050602060405180830381600087803b151561218557600080fd5b6102c65a03f1151561219657600080fd5b5050506040518051905015156121ab57600080fd5b600060018111156121b857fe5b600060149054906101000a900460ff1660018111156121d357fe5b1415156121df57600080fd5b6121e7614375565b9150600960049054906101000a900463ffffffff1663ffffffff168263ffffffff161115612220576122196002614d57565b9250612231565b61222e823360006001615268565b92505b505090565b600061224061578c565b60006001600281111561224f57fe5b600760009054906101000a900460ff16600281111561226a57fe5b14151561227657600080fd5b3373ffffffffffffffffffffffffffffffffffffffff16600460009054906101000a900473ffffffffffffffffffffffffffffffffffffffff1673ffffffffffffffffffffffffffffffffffffffff161415156122d257600080fd5b84600760019054906101000a900473ffffffffffffffffffffffffffffffffffffffff1673ffffffffffffffffffffffffffffffffffffffff166307716dd2826000604051602001526040518263ffffffff167c0100000000000000000000000000000000000000000000000000000000028152600401808273ffffffffffffffffffffffffffffffffffffffff1673ffffffffffffffffffffffffffffffffffffffff168152602001915050602060405180830381600087803b151561239857600080fd5b6102c65a03f115156123a957600080fd5b5050506040518051905015156123be57600080fd5b600060018111156123cb57fe5b600060149054906101000a900460ff1660018111156123e657fe5b1415156123f257600080fd5b6123fb86614c5a565b92506002600481111561240a57fe5b8360e00151600481111561241a57fe5b1415156124325761242b6001614d57565b93506125a3565b60008360c0015163ffffffff1614156124bc57848360c0019063ffffffff16908163ffffffff16815250508573ffffffffffffffffffffffffffffffffffffffff167fa37936f901fbcd5e8455f5da64afeb1eee7e74207631fa526cce2e557e8558ac86604051808263ffffffff1663ffffffff16815260200191505060405180910390a2612594565b8463ffffffff168360c0015163ffffffff1611156124e5576124de6002614d57565b93506125a3565b8260c001518503915081836000018181510191509063ffffffff16908163ffffffff168152505060008360c0019063ffffffff16908163ffffffff16815250508573ffffffffffffffffffffffffffffffffffffffff167f6de60a07a7acf5461118186c54b115d32be4a3cc02b6a674a6b56424dbedc8858684604051808363ffffffff1663ffffffff1681526020018263ffffffff1663ffffffff1681526020019250505060405180910390a25b61259e8684614da6565b600093505b50505092915050565b600160009054906101000a900473ffffffffffffffffffffffffffffffffffffffff1681565b600060149054906101000a900460ff1681565b6125ed61578c565b60008060006125fa615812565b6000806001600281111561260a57fe5b600760009054906101000a900460ff16600281111561262557fe5b14151561263157600080fd5b6000600181111561263e57fe5b600060149054906101000a900460ff16600181111561265957fe5b14151561266557600080fd5b61266d614375565b9550600094505b600760019054906101000a900473ffffffffffffffffffffffffffffffffffffffff1673ffffffffffffffffffffffffffffffffffffffff1663949d225d6000604051602001526040518163ffffffff167c0100000000000000000000000000000000000000000000000000000000028152600401602060405180830381600087803b151561270257600080fd5b6102c65a03f1151561271357600080fd5b5050506040518051905061ffff16851015612cb057600760019054906101000a900473ffffffffffffffffffffffffffffffffffffffff1673ffffffffffffffffffffffffffffffffffffffff1663edf26d9b866000604051602001526040518263ffffffff167c010000000000000000000000000000000000000000000000000000000002815260040180828152602001915050602060405180830381600087803b15156127c157600080fd5b6102c65a03f115156127d257600080fd5b50505060405180519050935060008473ffffffffffffffffffffffffffffffffffffffff16141515612ca357600760019054906101000a900473ffffffffffffffffffffffffffffffffffffffff1673ffffffffffffffffffffffffffffffffffffffff1663091157cb85600060405161012001526040518263ffffffff167c0100000000000000000000000000000000000000000000000000000000028152600401808273ffffffffffffffffffffffffffffffffffffffff1673ffffffffffffffffffffffffffffffffffffffff16815260200191505061012060405180830381600087803b15156128c557600080fd5b6102c65a03f115156128d657600080fd5b505050604051806101200160405292506128ef836156b4565b9650600160048111156128fe57fe5b8760e00151600481111561290e57fe5b14801561292a5750866020015163ffffffff168663ffffffff16115b15612a5157612946876080015163ffffffff1660018701614f5d565b6006600082825401925050819055508660a0015163ffffffff16600860008282540392505081905550600760019054906101000a900473ffffffffffffffffffffffffffffffffffffffff1673ffffffffffffffffffffffffffffffffffffffff1663d108177a856000604051602001526040518263ffffffff167c0100000000000000000000000000000000000000000000000000000000028152600401808273ffffffffffffffffffffffffffffffffffffffff1673ffffffffffffffffffffffffffffffffffffffff168152602001915050602060405180830381600087803b1515612a3457600080fd5b6102c65a03f11515612a4557600080fd5b50505060405180519050505b60036004811115612a5e57fe5b8760e001516004811115612a6e57fe5b148015612a8a5750866060015163ffffffff168663ffffffff16115b15612ca257600160009054906101000a900473ffffffffffffffffffffffffffffffffffffffff1673ffffffffffffffffffffffffffffffffffffffff1663b1989a2b87856000604051604001526040518363ffffffff167c0100000000000000000000000000000000000000000000000000000000028152600401808363ffffffff1663ffffffff16815260200182600960200280838360005b83811015612b40578082015181840152602081019050612b25565b50505050905001925050506040805180830381600087803b1515612b6357600080fd5b6102c65a03f11515612b7457600080fd5b50505060405180519060200180519050915091506000821180612b975750600081115b15612ca157600760019054906101000a900473ffffffffffffffffffffffffffffffffffffffff1673ffffffffffffffffffffffffffffffffffffffff16632462f6f185886040518363ffffffff167c0100000000000000000000000000000000000000000000000000000000028152600401808373ffffffffffffffffffffffffffffffffffffffff1673ffffffffffffffffffffffffffffffffffffffff1681526020018263ffffffff1663ffffffff16815260200192505050600060405180830381600087803b1515612c6c57600080fd5b6102c65a03f11515612c7d57600080fd5b50505081600660008282540192505081905550806008600082825403925050819055505b5b5b8480600101955050612674565b50505050505050565b60003373ffffffffffffffffffffffffffffffffffffffff16600460009054906101000a900473ffffffffffffffffffffffffffffffffffffffff1673ffffffffffffffffffffffffffffffffffffffff16141515612d1757600080fd5b60006002811115612d2457fe5b600760009054906101000a900460ff166002811115612d3f57fe5b141515612d4b57600080fd5b60006001811115612d5857fe5b600060149054906101000a900460ff166001811115612d7357fe5b141515612d7f57600080fd5b6210c8e08463ffffffff161180612d9d57506127108463ffffffff16105b15612db357612dac6003614d57565b9050612e89565b8363ffffffff16600281905550600254600681905550828260039190612dda92919061583b565b506001600760006101000a81548160ff02191690836002811115612dfa57fe5b02179055507fe78e3ab131dd310bd60879eedc2fd4820925351befc3ec2cb94cc674c8800c10600460009054906101000a900473ffffffffffffffffffffffffffffffffffffffff16604051808273ffffffffffffffffffffffffffffffffffffffff1673ffffffffffffffffffffffffffffffffffffffff16815260200191505060405180910390a1600090505b9392505050565b6000809054906101000a900473ffffffffffffffffffffffffffffffffffffffff1681565b6000809054906101000a900473ffffffffffffffffffffffffffffffffffffffff1673ffffffffffffffffffffffffffffffffffffffff163373ffffffffffffffffffffffffffffffffffffffff16141515612f1057600080fd5b600180811115612f1c57fe5b600060149054906101000a900460ff166001811115612f3757fe5b141515612f4357600080fd5b60008060146101000a81548160ff02191690836001811115612f6157fe5b0217905550565b600080600280811115612f7757fe5b600760009054906101000a900460ff166002811115612f9257fe5b141515612f9e57600080fd5b3373ffffffffffffffffffffffffffffffffffffffff16600460009054906101000a900473ffffffffffffffffffffffffffffffffffffffff1673ffffffffffffffffffffffffffffffffffffffff16141515612ffa57600080fd5b83600760019054906101000a900473ffffffffffffffffffffffffffffffffffffffff1673ffffffffffffffffffffffffffffffffffffffff166307716dd2826000604051602001526040518263ffffffff167c0100000000000000000000000000000000000000000000000000000000028152600401808273ffffffffffffffffffffffffffffffffffffffff1673ffffffffffffffffffffffffffffffffffffffff168152602001915050602060405180830381600087803b15156130c057600080fd5b6102c65a03f115156130d157600080fd5b5050506040518051905015156130e657600080fd5b600060018111156130f357fe5b600060149054906101000a900460ff16600181111561310e57fe5b14151561311a57600080fd5b613122614375565b9150600960049054906101000a900463ffffffff1663ffffffff168263ffffffff1611151561315c576131556004614d57565b925061318d565b61318a8286600460009054906101000a900473ffffffffffffffffffffffffffffffffffffffff1687615268565b92505b505092915050565b60038054600181600116156101000203166002900480601f01602080910402602001604051908101604052809291908181526020018280546001816001161561010002031660029004801561322b5780601f106132005761010080835404028352916020019161322b565b820191906000526020600020905b81548152906001019060200180831161320e57829003601f168201915b505050505081565b600960009054906101000a900463ffffffff1681565b60065481565b600061325961578c565b6001600281111561326657fe5b600760009054906101000a900460ff16600281111561328157fe5b14151561328d57600080fd5b83600760019054906101000a900473ffffffffffffffffffffffffffffffffffffffff1673ffffffffffffffffffffffffffffffffffffffff166307716dd2826000604051602001526040518263ffffffff167c0100000000000000000000000000000000000000000000000000000000028152600401808273ffffffffffffffffffffffffffffffffffffffff1673ffffffffffffffffffffffffffffffffffffffff168152602001915050602060405180830381600087803b151561335357600080fd5b6102c65a03f1151561336457600080fd5b50505060405180519050151561337957600080fd5b3373ffffffffffffffffffffffffffffffffffffffff16600460009054906101000a900473ffffffffffffffffffffffffffffffffffffffff1673ffffffffffffffffffffffffffffffffffffffff161415156133d557600080fd5b600060018111156133e257fe5b600060149054906101000a900460ff1660018111156133fd57fe5b14151561340957600080fd5b60008473ffffffffffffffffffffffffffffffffffffffff16141561342d57600080fd5b61343685614c5a565b91506002600481111561344557fe5b8260e00151600481111561345557fe5b1415801561347e57506003600481111561346b57fe5b8260e00151600481111561347b57fe5b14155b156134945761348d6001614d57565b9250613517565b83600a60008773ffffffffffffffffffffffffffffffffffffffff1673ffffffffffffffffffffffffffffffffffffffff16815260200190815260200160002060006101000a81548173ffffffffffffffffffffffffffffffffffffffff021916908373ffffffffffffffffffffffffffffffffffffffff160217905550600092505b505092915050565b600082600760019054906101000a900473ffffffffffffffffffffffffffffffffffffffff1673ffffffffffffffffffffffffffffffffffffffff166307716dd2826000604051602001526040518263ffffffff167c0100000000000000000000000000000000000000000000000000000000028152600401808273ffffffffffffffffffffffffffffffffffffffff1673ffffffffffffffffffffffffffffffffffffffff168152602001915050602060405180830381600087803b15156135e757600080fd5b6102c65a03f115156135f857600080fd5b50505060405180519050151561360d57600080fd5b6000600181111561361a57fe5b600060149054906101000a900460ff16600181111561363557fe5b14151561364157600080fd5b600160009054906101000a900473ffffffffffffffffffffffffffffffffffffffff1673ffffffffffffffffffffffffffffffffffffffff16638b17ab2f600760019054906101000a900473ffffffffffffffffffffffffffffffffffffffff1673ffffffffffffffffffffffffffffffffffffffff1663091157cb87600060405161012001526040518263ffffffff167c0100000000000000000000000000000000000000000000000000000000028152600401808273ffffffffffffffffffffffffffffffffffffffff1673ffffffffffffffffffffffffffffffffffffffff16815260200191505061012060405180830381600087803b151561374657600080fd5b6102c65a03f1151561375757600080fd5b505050604051806101200160405285600960009054906101000a900463ffffffff16600080604051602001526040518563ffffffff167c01000000000000000000000000000000000000000000000000000000000281526004018085600960200280838360005b838110156137d95780820151818401526020810190506137be565b505050509050018463ffffffff1663ffffffff1681526020018363ffffffff1663ffffffff16815260200182151515158152602001945050505050602060405180830381600087803b151561382d57600080fd5b6102c65a03f1151561383e57600080fd5b5050506040518051905091505092915050565b6000809054906101000a900473ffffffffffffffffffffffffffffffffffffffff1673ffffffffffffffffffffffffffffffffffffffff163373ffffffffffffffffffffffffffffffffffffffff161415156138ac57600080fd5b600060018111156138b957fe5b600060149054906101000a900460ff1660018111156138d457fe5b1415156138e057600080fd5b6001600060146101000a81548160ff021916908360018111156138ff57fe5b0217905550565b6000806001600281111561391657fe5b600760009054906101000a900460ff16600281111561393157fe5b14151561393d57600080fd5b3373ffffffffffffffffffffffffffffffffffffffff16600460009054906101000a900473ffffffffffffffffffffffffffffffffffffffff1673ffffffffffffffffffffffffffffffffffffffff1614151561399957600080fd5b600060018111156139a657fe5b600060149054906101000a900460ff1660018111156139c157fe5b1415156139cd57600080fd5b6139d5614375565b90506212750063ffffffff16818473ffffffffffffffffffffffffffffffffffffffff1663e1a7739c6000604051602001526040518163ffffffff167c0100000000000000000000000000000000000000000000000000000000028152600401602060405180830381600087803b1515613a4e57600080fd5b6102c65a03f11515613a5f57600080fd5b505050604051805190500363ffffffff161015613a8757613a806002614d57565b9150613d80565b3073ffffffffffffffffffffffffffffffffffffffff168373ffffffffffffffffffffffffffffffffffffffff1663f73c30e36000604051602001526040518163ffffffff167c0100000000000000000000000000000000000000000000000000000000028152600401602060405180830381600087803b1515613b0a57600080fd5b6102c65a03f11515613b1b57600080fd5b5050506040518051905073ffffffffffffffffffffffffffffffffffffffff16141515613b5357613b4c6003614d57565b9150613d80565b613b5b6125e5565b80600960006101000a81548163ffffffff021916908363ffffffff1602179055508273ffffffffffffffffffffffffffffffffffffffff1663e1a7739c6000604051602001526040518163ffffffff167c0100000000000000000000000000000000000000000000000000000000028152600401602060405180830381600087803b1515613be857600080fd5b6102c65a03f11515613bf957600080fd5b50505060405180519050600960046101000a81548163ffffffff021916908363ffffffff16021790555082600960086101000a81548173ffffffffffffffffffffffffffffffffffffffff021916908373ffffffffffffffffffffffffffffffffffffffff1602179055506002600760006101000a81548160ff02191690836002811115613c8357fe5b02179055507f431ef9b58d5b4525645a818291a692f150c556f6b681cdd8c1631a47676ee5c3600460009054906101000a900473ffffffffffffffffffffffffffffffffffffffff168483600960049054906101000a900463ffffffff16604051808573ffffffffffffffffffffffffffffffffffffffff1673ffffffffffffffffffffffffffffffffffffffff1681526020018473ffffffffffffffffffffffffffffffffffffffff1673ffffffffffffffffffffffffffffffffffffffff1681526020018363ffffffff1663ffffffff1681526020018263ffffffff1663ffffffff16815260200194505050505060405180910390a1600091505b50919050565b6232993d431115613d9657600080fd5b80600060156101000a81548163ffffffff021916908363ffffffff16021790555050565b6000809054906101000a900473ffffffffffffffffffffffffffffffffffffffff1673ffffffffffffffffffffffffffffffffffffffff163373ffffffffffffffffffffffffffffffffffffffff16141515613e1557600080fd5b600180811115613e2157fe5b600060149054906101000a900460ff166001811115613e3c57fe5b141515613e4857600080fd5b600760019054906101000a900473ffffffffffffffffffffffffffffffffffffffff1673ffffffffffffffffffffffffffffffffffffffff1663f2fde38b336040518263ffffffff167c0100000000000000000000000000000000000000000000000000000000028152600401808273ffffffffffffffffffffffffffffffffffffffff1673ffffffffffffffffffffffffffffffffffffffff168152602001915050600060405180830381600087803b1515613f0457600080fd5b6102c65a03f11515613f1557600080fd5b505050613f206156c4565b565b600080613f2d61578c565b60016002811115613f3a57fe5b600760009054906101000a900460ff166002811115613f5557fe5b141515613f6157600080fd5b3373ffffffffffffffffffffffffffffffffffffffff16600460009054906101000a900473ffffffffffffffffffffffffffffffffffffffff1673ffffffffffffffffffffffffffffffffffffffff16141515613fbd57600080fd5b60006001811115613fca57fe5b600060149054906101000a900460ff166001811115613fe557fe5b141515613ff157600080fd5b600760019054906101000a900473ffffffffffffffffffffffffffffffffffffffff1673ffffffffffffffffffffffffffffffffffffffff166307716dd2896000604051602001526040518263ffffffff167c0100000000000000000000000000000000000000000000000000000000028152600401808273ffffffffffffffffffffffffffffffffffffffff1673ffffffffffffffffffffffffffffffffffffffff168152602001915050602060405180830381600087803b15156140b657600080fd5b6102c65a03f115156140c757600080fd5b50505060405180519050156140e7576140e06001614d57565b925061436a565b621275006140f3614375565b0163ffffffff168663ffffffff161015614118576141116002614d57565b925061436a565b8315614127576141266125e5565b5b600160009054906101000a900473ffffffffffffffffffffffffffffffffffffffff1673ffffffffffffffffffffffffffffffffffffffff1663dcec5ecc6006546000604051602001526040518263ffffffff167c010000000000000000000000000000000000000000000000000000000002815260040180828152602001915050602060405180830381600087803b15156141c257600080fd5b6102c65a03f115156141d357600080fd5b50505060405180519050915063ffffffff8211156141f057600080fd5b610120604051908101604052808863ffffffff1681526020018763ffffffff168152602001600063ffffffff168152602001600063ffffffff1681526020018363ffffffff1681526020018663ffffffff168152602001600063ffffffff1681526020016001600481111561426157fe5b8152602001600061ffff16815250905061427b8882614da6565b816006600082825403925050819055508463ffffffff166008600082825401925050819055508773ffffffffffffffffffffffffffffffffffffffff167f20eea675d38b6201dfef10fe1b4211fc58b92a6be381b306500ebb90fdd2f8b2600460009054906101000a900473ffffffffffffffffffffffffffffffffffffffff168488604051808473ffffffffffffffffffffffffffffffffffffffff1673ffffffffffffffffffffffffffffffffffffffff1681526020018363ffffffff1663ffffffff1681526020018263ffffffff1663ffffffff168152602001935050505060405180910390a2600092505b505095945050505050565b600063ffffffff42111561438857600080fd5b60008060159054906101000a900463ffffffff1663ffffffff16116143ad57426143c1565b600060159054906101000a900463ffffffff165b905090565b600960089054906101000a900473ffffffffffffffffffffffffffffffffffffffff1681565b60025481565b6000809054906101000a900473ffffffffffffffffffffffffffffffffffffffff1673ffffffffffffffffffffffffffffffffffffffff163373ffffffffffffffffffffffffffffffffffffffff1614151561444d57600080fd5b600073ffffffffffffffffffffffffffffffffffffffff168173ffffffffffffffffffffffffffffffffffffffff161415156144c457806000806101000a81548173ffffffffffffffffffffffffffffffffffffffff021916908373ffffffffffffffffffffffffffffffffffffffff1602179055505b50565b60006144d161578c565b600033600760019054906101000a900473ffffffffffffffffffffffffffffffffffffffff1673ffffffffffffffffffffffffffffffffffffffff166307716dd2826000604051602001526040518263ffffffff167c0100000000000000000000000000000000000000000000000000000000028152600401808273ffffffffffffffffffffffffffffffffffffffff1673ffffffffffffffffffffffffffffffffffffffff168152602001915050602060405180830381600087803b151561459957600080fd5b6102c65a03f115156145aa57600080fd5b5050506040518051905015156145bf57600080fd5b600160028111156145cc57fe5b600760009054906101000a900460ff1660028111156145e757fe5b1415156145f357600080fd5b6000600181111561460057fe5b600060149054906101000a900460ff16600181111561461b57fe5b14151561462757600080fd5b61463033614c5a565b92506001600481111561463f57fe5b8360e00151600481111561464f57fe5b141515614667576146606001614d57565b93506148f0565b61466f614375565b9150826020015163ffffffff168263ffffffff1611156147c1576146a6836080015163ffffffff1684610100015161ffff16614f5d565b6006600082825401925050819055508260a0015163ffffffff16600860008282540392505081905550600760019054906101000a900473ffffffffffffffffffffffffffffffffffffffff1673ffffffffffffffffffffffffffffffffffffffff1663d108177a336000604051602001526040518263ffffffff167c0100000000000000000000000000000000000000000000000000000000028152600401808273ffffffffffffffffffffffffffffffffffffffff1673ffffffffffffffffffffffffffffffffffffffff168152602001915050602060405180830381600087803b151561479457600080fd5b6102c65a03f115156147a557600080fd5b50505060405180519050506147ba6002614d57565b93506148f0565b600760019054906101000a900473ffffffffffffffffffffffffffffffffffffffff1673ffffffffffffffffffffffffffffffffffffffff16632ed4a2c73360026040518363ffffffff167c0100000000000000000000000000000000000000000000000000000000028152600401808373ffffffffffffffffffffffffffffffffffffffff1673ffffffffffffffffffffffffffffffffffffffff16815260200182600481111561486f57fe5b60ff16815260200192505050600060405180830381600087803b151561489457600080fd5b6102c65a03f115156148a557600080fd5b5050503373ffffffffffffffffffffffffffffffffffffffff167f06155e9532ee6dc12fad75fb22ffb46f42fc8c2a6342389c1ac5776da7deab1060405160405180910390a2600093505b50505090565b600061490061578c565b6001600281111561490d57fe5b600760009054906101000a900460ff16600281111561492857fe5b14151561493457600080fd5b3373ffffffffffffffffffffffffffffffffffffffff16600460009054906101000a900473ffffffffffffffffffffffffffffffffffffffff1673ffffffffffffffffffffffffffffffffffffffff1614151561499057600080fd5b6000600181111561499d57fe5b600060149054906101000a900460ff1660018111156149b857fe5b1415156149c457600080fd5b600760019054906101000a900473ffffffffffffffffffffffffffffffffffffffff1673ffffffffffffffffffffffffffffffffffffffff166307716dd2876000604051602001526040518263ffffffff167c0100000000000000000000000000000000000000000000000000000000028152600401808273ffffffffffffffffffffffffffffffffffffffff1673ffffffffffffffffffffffffffffffffffffffff168152602001915050602060405180830381600087803b1515614a8957600080fd5b6102c65a03f11515614a9a57600080fd5b5050506040518051905015614aba57614ab36001614d57565b9150614c51565b62127500614ac6614375565b0163ffffffff168463ffffffff161015614aeb57614ae46002614d57565b9150614c51565b610120604051908101604052808663ffffffff1681526020018563ffffffff168152602001600063ffffffff168152602001600063ffffffff168152602001600063ffffffff1681526020018463ffffffff168152602001600063ffffffff16815260200160016004811115614b5d57fe5b8152602001600061ffff168152509050614b778682614da6565b8263ffffffff166008600082825401925050819055508573ffffffffffffffffffffffffffffffffffffffff167f20eea675d38b6201dfef10fe1b4211fc58b92a6be381b306500ebb90fdd2f8b2600460009054906101000a900473ffffffffffffffffffffffffffffffffffffffff16600086604051808473ffffffffffffffffffffffffffffffffffffffff1673ffffffffffffffffffffffffffffffffffffffff1681526020018363ffffffff1681526020018263ffffffff1663ffffffff168152602001935050505060405180910390a2600091505b50949350505050565b614c6261578c565b614d50600760019054906101000a900473ffffffffffffffffffffffffffffffffffffffff1673ffffffffffffffffffffffffffffffffffffffff1663091157cb84600060405161012001526040518263ffffffff167c0100000000000000000000000000000000000000000000000000000000028152600401808273ffffffffffffffffffffffffffffffffffffffff1673ffffffffffffffffffffffffffffffffffffffff16815260200191505061012060405180830381600087803b1515614d2c57600080fd5b6102c65a03f11515614d3d57600080fd5b50505060405180610120016040526156b4565b9050919050565b60007fe5357b0241f8529e759880237b81c113a08b50b43251aa0d18d1578a6e32dedf8260405180826004811115614d8b57fe5b60ff16815260200191505060405180910390a1819050919050565b600760019054906101000a900473ffffffffffffffffffffffffffffffffffffffff1673ffffffffffffffffffffffffffffffffffffffff166373ece9c483836000015184602001518560400151866060015187608001518860a001518960c001518a60e001516000604051602001526040518a63ffffffff167c0100000000000000000000000000000000000000000000000000000000028152600401808a73ffffffffffffffffffffffffffffffffffffffff1673ffffffffffffffffffffffffffffffffffffffff1681526020018963ffffffff1663ffffffff1681526020018863ffffffff1663ffffffff1681526020018763ffffffff1663ffffffff1681526020018663ffffffff1663ffffffff1681526020018563ffffffff1663ffffffff1681526020018463ffffffff1663ffffffff1681526020018363ffffffff1663ffffffff168152602001826004811115614f0157fe5b60ff1681526020019950505050505050505050602060405180830381600087803b1515614f2d57600080fd5b6102c65a03f11515614f3e57600080fd5b50505060405180519050505050565b614f55615812565b819050919050565b6000614f6761578c565b60008060008592505b600760019054906101000a900473ffffffffffffffffffffffffffffffffffffffff1673ffffffffffffffffffffffffffffffffffffffff1663949d225d6000604051602001526040518163ffffffff167c0100000000000000000000000000000000000000000000000000000000028152600401602060405180830381600087803b1515614ffe57600080fd5b6102c65a03f1151561500f57600080fd5b5050506040518051905061ffff1683101561525b57600760019054906101000a900473ffffffffffffffffffffffffffffffffffffffff1673ffffffffffffffffffffffffffffffffffffffff1663edf26d9b846000604051602001526040518263ffffffff167c010000000000000000000000000000000000000000000000000000000002815260040180828152602001915050602060405180830381600087803b15156150bd57600080fd5b6102c65a03f115156150ce57600080fd5b50505060405180519050915060008273ffffffffffffffffffffffffffffffffffffffff1614151561524e5761510382614c5a565b93506000846080015163ffffffff1611801561515e57506001600481111561512757fe5b8460e00151600481111561513757fe5b148061515d57506002600481111561514b57fe5b8460e00151600481111561515b57fe5b145b5b1561524d57600160009054906101000a900473ffffffffffffffffffffffffffffffffffffffff1673ffffffffffffffffffffffffffffffffffffffff1663dcec5ecc886000604051602001526040518263ffffffff167c010000000000000000000000000000000000000000000000000000000002815260040180828152602001915050602060405180830381600087803b15156151fc57600080fd5b6102c65a03f1151561520d57600080fd5b50505060405180519050905080846080018181510191509063ffffffff16908163ffffffff16815250508063ffffffff168703965061524c8285614da6565b5b5b8280600101935050614f70565b8694505050505092915050565b600061527261578c565b600080600061528088614c5a565b935060048081111561528e57fe5b8460e00151600481111561529e57fe5b14156152b5576152ae6001614d57565b94506156a8565b600073ffffffffffffffffffffffffffffffffffffffff168773ffffffffffffffffffffffffffffffffffffffff1614151561542857600160009054906101000a900473ffffffffffffffffffffffffffffffffffffffff1673ffffffffffffffffffffffffffffffffffffffff1663ec4bfdd461533286614f4d565b8b600960009054906101000a900463ffffffff168a6000604051606001526040518563ffffffff167c01000000000000000000000000000000000000000000000000000000000281526004018085600960200280838360005b838110156153a657808201518184015260208101905061538b565b505050509050018463ffffffff1663ffffffff1681526020018363ffffffff1663ffffffff16815260200182151515158152602001945050505050606060405180830381600087803b15156153fa57600080fd5b6102c65a03f1151561540b57600080fd5b505050604051805190602001805190602001805190509250925092505b600760019054906101000a900473ffffffffffffffffffffffffffffffffffffffff1673ffffffffffffffffffffffffffffffffffffffff16632ed4a2c78960046040518363ffffffff167c0100000000000000000000000000000000000000000000000000000000028152600401808373ffffffffffffffffffffffffffffffffffffffff1673ffffffffffffffffffffffffffffffffffffffff1681526020018260048111156154d657fe5b60ff16815260200192505050600060405180830381600087803b15156154fb57600080fd5b6102c65a03f1151561550c57600080fd5b505050600960089054906101000a900473ffffffffffffffffffffffffffffffffffffffff1673ffffffffffffffffffffffffffffffffffffffff16638e6df32f888585858b156040518663ffffffff167c0100000000000000000000000000000000000000000000000000000000028152600401808673ffffffffffffffffffffffffffffffffffffffff1673ffffffffffffffffffffffffffffffffffffffff1681526020018581526020018481526020018381526020018215151515815260200195505050505050600060405180830381600087803b15156155f057600080fd5b6102c65a03f1151561560157600080fd5b5050508773ffffffffffffffffffffffffffffffffffffffff167ffc0174951e12af0f97c4b84ada6bdb5015397b78a3d712b134dc42b020fe060b8883858701018915604051808473ffffffffffffffffffffffffffffffffffffffff1673ffffffffffffffffffffffffffffffffffffffff1681526020018363ffffffff1663ffffffff16815260200182151515158152602001935050505060405180910390a2600094505b50505050949350505050565b6156bc61578c565b819050919050565b6000809054906101000a900473ffffffffffffffffffffffffffffffffffffffff1673ffffffffffffffffffffffffffffffffffffffff163373ffffffffffffffffffffffffffffffffffffffff1614151561571f57600080fd5b60018081111561572b57fe5b600060149054906101000a900460ff16600181111561574657fe5b14151561575257600080fd5b6000809054906101000a900473ffffffffffffffffffffffffffffffffffffffff1673ffffffffffffffffffffffffffffffffffffffff16ff5b61012060405190810160405280600063ffffffff168152602001600063ffffffff168152602001600063ffffffff168152602001600063ffffffff168152602001600063ffffffff168152602001600063ffffffff168152602001600063ffffffff1681526020016000600481111561580157fe5b8152602001600061ffff1681525090565b610120604051908101604052806009905b60008152602001906001900390816158235790505090565b828054600181600116156101000203166002900490600052602060002090601f016020900481019282601f1061587c57803560ff19168380011785556158aa565b828001600101855582156158aa579182015b828111156158a957823582559160200191906001019061588e565b5b5090506158b791906158bb565b5090565b6158dd91905b808211156158d95760008160009055506001016158c1565b5090565b905600a165627a7a7230582029a54710974475db5bb4a490fbc30ae72be793516a8cd9d7828b8d48659d9ada0029",
  "source": "pragma solidity ^0.4.11;\nimport \"./ESOPTypes.sol\";\nimport \"./EmployeesList.sol\";\nimport \"./OptionsCalculator.sol\";\nimport \"./CodeUpdateable.sol\";\nimport './BaseOptionsConverter.sol';\nimport './ESOPMigration.sol';\n\n\ncontract ESOP is ESOPTypes, CodeUpdateable, TimeSource {\n  // employee changed events\n  event ESOPOffered(address indexed employee, address company, uint32 poolOptions, uint32 extraOptions);\n  event EmployeeSignedToESOP(address indexed employee);\n  event SuspendEmployee(address indexed employee, uint32 suspendedAt);\n  event ContinueSuspendedEmployee(address indexed employee, uint32 continuedAt, uint32 suspendedPeriod);\n  event TerminateEmployee(address indexed employee, address company, uint32 terminatedAt, TerminationType termType);\n  event EmployeeOptionsExercised(address indexed employee, address exercisedFor, uint32 poolOptions, bool disableAcceleratedVesting);\n  event EmployeeMigrated(address indexed employee, address migration, uint pool, uint extra);\n  // esop changed events\n  event ESOPOpened(address company);\n  event OptionsConversionOffered(address company, address converter, uint32 convertedAt, uint32 exercisePeriodDeadline);\n  enum ESOPState { New, Open, Conversion }\n  // use retrun codes until revert opcode is implemented\n  enum ReturnCodes { OK, InvalidEmployeeState, TooLate, InvalidParameters, TooEarly  }\n  // event raised when return code from a function is not OK, when OK is returned one of events above is raised\n  event ReturnCode(ReturnCodes rc);\n  enum TerminationType { Regular, BadLeaver }\n\n  //CONFIG\n  OptionsCalculator public optionsCalculator;\n  // total poolOptions in The Pool\n  uint public totalPoolOptions;\n  // ipfs hash of document establishing this ESOP\n  bytes public ESOPLegalWrapperIPFSHash;\n  // company address\n  address public companyAddress;\n  // root of immutable root of trust pointing to given ESOP implementation\n  address public rootOfTrust;\n  // default period for employee signature\n  uint32 constant public MINIMUM_MANUAL_SIGN_PERIOD = 2 weeks;\n\n  // STATE\n  // poolOptions that remain to be assigned\n  uint public remainingPoolOptions;\n  // state of ESOP\n  ESOPState public esopState; // automatically sets to Open (0)\n  // list of employees\n  EmployeesList public employees;\n  // how many extra options inserted\n  uint public totalExtraOptions;\n  // when conversion event happened\n  uint32 public conversionOfferedAt;\n  // employee conversion deadline\n  uint32 public exerciseOptionsDeadline;\n  // option conversion proxy\n  BaseOptionsConverter public optionsConverter;\n\n  // migration destinations per employee\n  mapping (address => ESOPMigration) private migrations;\n\n  modifier hasEmployee(address e) {\n    // will throw on unknown address\n    if (!employees.hasEmployee(e))\n      throw;\n    _;\n  }\n\n  modifier onlyESOPNew() {\n    if (esopState != ESOPState.New)\n      throw;\n    _;\n  }\n\n  modifier onlyESOPOpen() {\n    if (esopState != ESOPState.Open)\n      throw;\n    _;\n  }\n\n  modifier onlyESOPConversion() {\n    if (esopState != ESOPState.Conversion)\n      throw;\n    _;\n  }\n\n  modifier onlyCompany() {\n    if (companyAddress != msg.sender)\n      throw;\n    _;\n  }\n\n  function distributeAndReturnToPool(uint distributedOptions, uint idx)\n    internal\n    returns (uint)\n  {\n    // enumerate all employees that were offered poolOptions after than fromIdx -1 employee\n    Employee memory emp;\n    for (uint i = idx; i < employees.size(); i++) {\n      address ea = employees.addresses(i);\n      if (ea != 0) { // address(0) is deleted employee\n        emp = _loademp(ea);\n        // skip employees with no poolOptions and terminated employees\n        if (emp.poolOptions > 0 && ( emp.state == EmployeeState.WaitingForSignature || emp.state == EmployeeState.Employed) ) {\n          uint newoptions = optionsCalculator.calcNewEmployeePoolOptions(distributedOptions);\n          emp.poolOptions += uint32(newoptions);\n          distributedOptions -= uint32(newoptions);\n          _saveemp(ea, emp);\n        }\n      }\n    }\n    return distributedOptions;\n  }\n\n  function removeEmployeesWithExpiredSignaturesAndReturnFadeout()\n    onlyESOPOpen\n    isCurrentCode\n    public\n  {\n    // removes employees that didn't sign and sends their poolOptions back to the pool\n    // computes fadeout for terminated employees and returns it to pool\n    // we let anyone to call that method and spend gas on it\n    Employee memory emp;\n    uint32 ct = currentTime();\n    for (uint i = 0; i < employees.size(); i++) {\n      address ea = employees.addresses(i);\n      if (ea != 0) { // address(0) is deleted employee\n        var ser = employees.getSerializedEmployee(ea);\n        emp = deserializeEmployee(ser);\n        // remove employees with expired signatures\n        if (emp.state == EmployeeState.WaitingForSignature && ct > emp.timeToSign) {\n          remainingPoolOptions += distributeAndReturnToPool(emp.poolOptions, i+1);\n          totalExtraOptions -= emp.extraOptions;\n          // actually this just sets address to 0 so iterator can continue\n          employees.removeEmployee(ea);\n        }\n        // return fadeout to pool\n        if (emp.state == EmployeeState.Terminated && ct > emp.fadeoutStarts) {\n          var (returnedPoolOptions, returnedExtraOptions) = optionsCalculator.calculateFadeoutToPool(ct, ser);\n          if (returnedPoolOptions > 0 || returnedExtraOptions > 0) {\n            employees.setFadeoutStarts(ea, ct);\n            // options from fadeout are not distributed to other employees but returned to pool\n            remainingPoolOptions += returnedPoolOptions;\n            // we maintain extraPool for easier statistics\n            totalExtraOptions -= returnedExtraOptions;\n          }\n        }\n      }\n    }\n  }\n\n  function openESOP(uint32 pTotalPoolOptions, bytes pESOPLegalWrapperIPFSHash)\n    external\n    onlyCompany\n    onlyESOPNew\n    isCurrentCode\n    returns (ReturnCodes)\n  {\n    // options are stored in unit32\n    if (pTotalPoolOptions > 1100000 || pTotalPoolOptions < 10000) {\n      return _logerror(ReturnCodes.InvalidParameters);\n    }\n\n    totalPoolOptions = pTotalPoolOptions;\n    remainingPoolOptions = totalPoolOptions;\n    ESOPLegalWrapperIPFSHash = pESOPLegalWrapperIPFSHash;\n\n    esopState = ESOPState.Open;\n    ESOPOpened(companyAddress);\n    return ReturnCodes.OK;\n  }\n\n  function offerOptionsToEmployee(address e, uint32 issueDate, uint32 timeToSign, uint32 extraOptions, bool poolCleanup)\n    external\n    onlyESOPOpen\n    onlyCompany\n    isCurrentCode\n    returns (ReturnCodes)\n  {\n    // do not add twice\n    if (employees.hasEmployee(e)) {\n      return _logerror(ReturnCodes.InvalidEmployeeState);\n    }\n    if (timeToSign < currentTime() + MINIMUM_MANUAL_SIGN_PERIOD) {\n      return _logerror(ReturnCodes.TooLate);\n    }\n    if (poolCleanup) {\n      // recover poolOptions for employees with expired signatures\n      // return fade out to pool\n      removeEmployeesWithExpiredSignaturesAndReturnFadeout();\n    }\n    uint poolOptions = optionsCalculator.calcNewEmployeePoolOptions(remainingPoolOptions);\n    if (poolOptions > 0xFFFFFFFF)\n      throw;\n    Employee memory emp = Employee({\n      issueDate: issueDate, timeToSign: timeToSign, terminatedAt: 0, fadeoutStarts: 0, poolOptions: uint32(poolOptions),\n      extraOptions: extraOptions, suspendedAt: 0, state: EmployeeState.WaitingForSignature, idx: 0\n    });\n    _saveemp(e, emp);\n    remainingPoolOptions -= poolOptions;\n    totalExtraOptions += extraOptions;\n    ESOPOffered(e, companyAddress, uint32(poolOptions), extraOptions);\n    return ReturnCodes.OK;\n  }\n\n  // todo: implement group add someday, however func distributeAndReturnToPool gets very complicated\n  // todo: function calcNewEmployeePoolOptions(uint remaining, uint8 groupSize)\n  // todo: function addNewEmployeesToESOP(address[] emps, uint32 issueDate, uint32 timeToSign)\n\n  function offerOptionsToEmployeeOnlyExtra(address e, uint32 issueDate, uint32 timeToSign, uint32 extraOptions)\n    external\n    onlyESOPOpen\n    onlyCompany\n    isCurrentCode\n    returns (ReturnCodes)\n  {\n    // do not add twice\n    if (employees.hasEmployee(e)) {\n      return _logerror(ReturnCodes.InvalidEmployeeState);\n    }\n    if (timeToSign < currentTime() + MINIMUM_MANUAL_SIGN_PERIOD) {\n      return _logerror(ReturnCodes.TooLate);\n    }\n    Employee memory emp = Employee({\n      issueDate: issueDate, timeToSign: timeToSign, terminatedAt: 0, fadeoutStarts: 0, poolOptions: 0,\n      extraOptions: extraOptions, suspendedAt: 0, state: EmployeeState.WaitingForSignature, idx: 0\n    });\n    _saveemp(e, emp);\n    totalExtraOptions += extraOptions;\n    ESOPOffered(e, companyAddress, 0, extraOptions);\n    return ReturnCodes.OK;\n  }\n\n  function increaseEmployeeExtraOptions(address e, uint32 extraOptions)\n    external\n    onlyESOPOpen\n    onlyCompany\n    isCurrentCode\n    hasEmployee(e)\n    returns (ReturnCodes)\n  {\n    Employee memory emp = _loademp(e);\n    if (emp.state != EmployeeState.Employed && emp.state != EmployeeState.WaitingForSignature) {\n      return _logerror(ReturnCodes.InvalidEmployeeState);\n    }\n    emp.extraOptions += extraOptions;\n    _saveemp(e, emp);\n    totalExtraOptions += extraOptions;\n    ESOPOffered(e, companyAddress, 0, extraOptions);\n    return ReturnCodes.OK;\n  }\n\n  function employeeSignsToESOP()\n    external\n    hasEmployee(msg.sender)\n    onlyESOPOpen\n    isCurrentCode\n    returns (ReturnCodes)\n  {\n    Employee memory emp = _loademp(msg.sender);\n    if (emp.state != EmployeeState.WaitingForSignature) {\n      return _logerror(ReturnCodes.InvalidEmployeeState);\n    }\n    uint32 t = currentTime();\n    if (t > emp.timeToSign) {\n      remainingPoolOptions += distributeAndReturnToPool(emp.poolOptions, emp.idx);\n      totalExtraOptions -= emp.extraOptions;\n      employees.removeEmployee(msg.sender);\n      return _logerror(ReturnCodes.TooLate);\n    }\n    employees.changeState(msg.sender, EmployeeState.Employed);\n    EmployeeSignedToESOP(msg.sender);\n    return ReturnCodes.OK;\n  }\n\n  function toggleEmployeeSuspension(address e, uint32 toggledAt)\n    external\n    onlyESOPOpen\n    onlyCompany\n    hasEmployee(e)\n    isCurrentCode\n    returns (ReturnCodes)\n  {\n    Employee memory emp = _loademp(e);\n    if (emp.state != EmployeeState.Employed) {\n      return _logerror(ReturnCodes.InvalidEmployeeState);\n    }\n    if (emp.suspendedAt == 0) {\n      //suspend action\n      emp.suspendedAt = toggledAt;\n      SuspendEmployee(e, toggledAt);\n    } else {\n      if (emp.suspendedAt > toggledAt) {\n        return _logerror(ReturnCodes.TooLate);\n      }\n      uint32 suspendedPeriod = toggledAt - emp.suspendedAt;\n      // move everything by suspension period by changing issueDate\n      emp.issueDate += suspendedPeriod;\n      emp.suspendedAt = 0;\n      ContinueSuspendedEmployee(e, toggledAt, suspendedPeriod);\n    }\n    _saveemp(e, emp);\n    return ReturnCodes.OK;\n  }\n\n  function terminateEmployee(address e, uint32 terminatedAt, uint8 terminationType)\n    external\n    onlyESOPOpen\n    onlyCompany\n    hasEmployee(e)\n    isCurrentCode\n    returns (ReturnCodes)\n  {\n    // terminates an employee\n    TerminationType termType = TerminationType(terminationType);\n    Employee memory emp = _loademp(e);\n    // todo: check termination time against issueDate\n    if (terminatedAt < emp.issueDate) {\n      return _logerror(ReturnCodes.InvalidParameters);\n    }\n    if (emp.state == EmployeeState.WaitingForSignature)\n      termType = TerminationType.BadLeaver;\n    else if (emp.state != EmployeeState.Employed) {\n      return _logerror(ReturnCodes.InvalidEmployeeState);\n    }\n    // how many poolOptions returned to pool\n    uint returnedOptions;\n    uint returnedExtraOptions;\n    if (termType == TerminationType.Regular) {\n      // regular termination, compute suspension\n      if (emp.suspendedAt > 0 && emp.suspendedAt < terminatedAt)\n        emp.issueDate += terminatedAt - emp.suspendedAt;\n      // vesting applies\n      returnedOptions = emp.poolOptions - optionsCalculator.calculateVestedOptions(terminatedAt, emp.issueDate, emp.poolOptions);\n      returnedExtraOptions = emp.extraOptions - optionsCalculator.calculateVestedOptions(terminatedAt, emp.issueDate, emp.extraOptions);\n      employees.terminateEmployee(e, emp.issueDate, terminatedAt, terminatedAt, EmployeeState.Terminated);\n    } else if (termType == TerminationType.BadLeaver) {\n      // bad leaver - employee is kicked out from ESOP, return all poolOptions\n      returnedOptions = emp.poolOptions;\n      returnedExtraOptions = emp.extraOptions;\n      employees.removeEmployee(e);\n    }\n    remainingPoolOptions += distributeAndReturnToPool(returnedOptions, emp.idx);\n    totalExtraOptions -= returnedExtraOptions;\n    TerminateEmployee(e, companyAddress, terminatedAt, termType);\n    return ReturnCodes.OK;\n  }\n\n  function offerOptionsConversion(BaseOptionsConverter converter)\n    external\n    onlyESOPOpen\n    onlyCompany\n    isCurrentCode\n    returns (ReturnCodes)\n  {\n    uint32 offerMadeAt = currentTime();\n    if (converter.getExercisePeriodDeadline() - offerMadeAt < MINIMUM_MANUAL_SIGN_PERIOD) {\n      return _logerror(ReturnCodes.TooLate);\n    }\n    // exerciseOptions must be callable by us\n    if (converter.getESOP() != address(this)) {\n      return _logerror(ReturnCodes.InvalidParameters);\n    }\n    // return to pool everything we can\n    removeEmployeesWithExpiredSignaturesAndReturnFadeout();\n    // from now vesting and fadeout stops, no new employees may be added\n    conversionOfferedAt = offerMadeAt;\n    exerciseOptionsDeadline = converter.getExercisePeriodDeadline();\n    optionsConverter = converter;\n    // this is very irreversible\n    esopState = ESOPState.Conversion;\n    OptionsConversionOffered(companyAddress, address(converter), offerMadeAt, exerciseOptionsDeadline);\n    return ReturnCodes.OK;\n  }\n\n  function exerciseOptionsInternal(uint32 calcAtTime, address employee, address exerciseFor,\n    bool disableAcceleratedVesting)\n    internal\n    returns (ReturnCodes)\n  {\n    Employee memory emp = _loademp(employee);\n    if (emp.state == EmployeeState.OptionsExercised) {\n      return _logerror(ReturnCodes.InvalidEmployeeState);\n    }\n    // if we are burning options then send 0\n    if (exerciseFor != address(0)) {\n      var (pool, extra, bonus) = optionsCalculator.calculateOptionsComponents(serializeEmployee(emp),\n        calcAtTime, conversionOfferedAt, disableAcceleratedVesting);\n      }\n    // call before options conversion contract to prevent re-entry\n    employees.changeState(employee, EmployeeState.OptionsExercised);\n    // exercise options in the name of employee and assign those to exerciseFor\n    optionsConverter.exerciseOptions(exerciseFor, pool, extra, bonus, !disableAcceleratedVesting);\n    EmployeeOptionsExercised(employee, exerciseFor, uint32(pool + extra + bonus), !disableAcceleratedVesting);\n    return ReturnCodes.OK;\n  }\n\n  function employeeExerciseOptions(bool agreeToAcceleratedVestingBonusConditions)\n    external\n    onlyESOPConversion\n    hasEmployee(msg.sender)\n    isCurrentCode\n    returns (ReturnCodes)\n  {\n    uint32 ct = currentTime();\n    if (ct > exerciseOptionsDeadline) {\n      return _logerror(ReturnCodes.TooLate);\n    }\n    return exerciseOptionsInternal(ct, msg.sender, msg.sender, !agreeToAcceleratedVestingBonusConditions);\n  }\n\n  function employeeDenyExerciseOptions()\n    external\n    onlyESOPConversion\n    hasEmployee(msg.sender)\n    isCurrentCode\n    returns (ReturnCodes)\n  {\n    uint32 ct = currentTime();\n    if (ct > exerciseOptionsDeadline) {\n      return _logerror(ReturnCodes.TooLate);\n    }\n    // burn the options by sending to 0\n    return exerciseOptionsInternal(ct, msg.sender, address(0), true);\n  }\n\n  function exerciseExpiredEmployeeOptions(address e, bool disableAcceleratedVesting)\n    external\n    onlyESOPConversion\n    onlyCompany\n    hasEmployee(e)\n    isCurrentCode\n  returns (ReturnCodes)\n  {\n    // company can convert options for any employee that did not converted (after deadline)\n    uint32 ct = currentTime();\n    if (ct <= exerciseOptionsDeadline) {\n      return _logerror(ReturnCodes.TooEarly);\n    }\n    return exerciseOptionsInternal(ct, e, companyAddress, disableAcceleratedVesting);\n  }\n\n  function allowEmployeeMigration(address employee, ESOPMigration migration)\n    external\n    onlyESOPOpen\n    hasEmployee(employee)\n    onlyCompany\n    isCurrentCode\n    returns (ReturnCodes)\n  {\n    if (address(migration) == 0)\n      throw;\n    // only employed and terminated users may migrate\n    Employee memory emp = _loademp(employee);\n    if (emp.state != EmployeeState.Employed && emp.state != EmployeeState.Terminated) {\n      return _logerror(ReturnCodes.InvalidEmployeeState);\n    }\n    migrations[employee] = migration; // can be cleared with 0 address\n    return ReturnCodes.OK;\n  }\n\n  function employeeMigratesToNewESOP(ESOPMigration migration)\n    external\n    onlyESOPOpen\n    hasEmployee(msg.sender)\n    isCurrentCode\n    returns (ReturnCodes)\n  {\n    // employee may migrate to new ESOP contract with different rules\n    // if migration not set up by company then throw\n    if (address(migration) == 0 || migrations[msg.sender] != migration)\n      throw;\n    // first give back what you already own\n    removeEmployeesWithExpiredSignaturesAndReturnFadeout();\n    // only employed and terminated users may migrate\n    Employee memory emp = _loademp(msg.sender);\n    if (emp.state != EmployeeState.Employed && emp.state != EmployeeState.Terminated) {\n      return _logerror(ReturnCodes.InvalidEmployeeState);\n    }\n    // with accelerated vesting if possible - take out all possible options\n    var (pool, extra, _) = optionsCalculator.calculateOptionsComponents(serializeEmployee(emp), currentTime(), 0, false);\n    delete migrations[msg.sender];\n    // execute migration procedure\n    migration.migrate(msg.sender, pool, extra);\n    // extra options are moved to new contract\n    totalExtraOptions -= emp.state == EmployeeState.Employed ? emp.extraOptions : extra;\n    // pool options are moved to new contract and removed from The Pool\n    // please note that separate Pool will manage migrated options and\n    // algorithm that returns to pool and distributes will not be used\n    totalPoolOptions -= emp.state == EmployeeState.Employed ? emp.poolOptions : pool;\n    // gone from current contract\n    employees.removeEmployee(msg.sender);\n    EmployeeMigrated(msg.sender, migration, pool, extra);\n    return ReturnCodes.OK;\n  }\n\n  function calcEffectiveOptionsForEmployee(address e, uint32 calcAtTime)\n    public\n    constant\n    hasEmployee(e)\n    isCurrentCode\n    returns (uint)\n  {\n    return optionsCalculator.calculateOptions(employees.getSerializedEmployee(e), calcAtTime, conversionOfferedAt, false);\n  }\n\n  function _logerror(ReturnCodes c) private returns (ReturnCodes) {\n    ReturnCode(c);\n    return c;\n  }\n\n  function _loademp(address e) private constant returns (Employee memory) {\n    return deserializeEmployee(employees.getSerializedEmployee(e));\n  }\n\n  function _saveemp(address e, Employee memory emp) private {\n    employees.setEmployee(e, emp.issueDate, emp.timeToSign, emp.terminatedAt, emp.fadeoutStarts, emp.poolOptions,\n      emp.extraOptions, emp.suspendedAt, emp.state);\n  }\n\n  function completeCodeUpdate() public onlyOwner inCodeUpdate {\n    employees.transferOwnership(msg.sender);\n    CodeUpdateable.completeCodeUpdate();\n  }\n\n  function()\n      payable\n  {\n      throw;\n  }\n\n  function ESOP(address company, address pRootOfTrust, OptionsCalculator pOptionsCalculator, EmployeesList pEmployeesList) {\n    //esopState = ESOPState.New; // thats initial value\n    companyAddress = company;\n    rootOfTrust = pRootOfTrust;\n    employees = pEmployeesList;\n    optionsCalculator = pOptionsCalculator;\n  }\n}\n",
  "sourcePath": "/home/ethnode/parity/ESOP/contracts/ESOP.sol",
  "compiler": {
    "name": "solc",
    "version": "0.4.19+commit.c4cbbb05.Emscripten.clang"
  },
  "schemaVersion": "2.0.0",
  "updatedAt": "2018-03-18T07:17:38.504Z"
}