{
  "contractName": "OptionsCalculator",
  "abi": [
    {
      "constant": true,
      "inputs": [],
      "name": "maxFadeoutPromille",
      "outputs": [
        {
          "name": "",
          "type": "uint256"
        }
      ],
      "payable": false,
      "stateMutability": "view",
      "type": "function"
    },
    {
      "constant": true,
      "inputs": [],
      "name": "cliffPeriod",
      "outputs": [
        {
          "name": "",
          "type": "uint256"
        }
      ],
      "payable": false,
      "stateMutability": "view",
      "type": "function"
    },
    {
      "constant": true,
      "inputs": [],
      "name": "companyAddress",
      "outputs": [
        {
          "name": "",
          "type": "address"
        }
      ],
      "payable": false,
      "stateMutability": "view",
      "type": "function"
    },
    {
      "constant": true,
      "inputs": [],
      "name": "FP_SCALE",
      "outputs": [
        {
          "name": "",
          "type": "uint256"
        }
      ],
      "payable": false,
      "stateMutability": "view",
      "type": "function"
    },
    {
      "constant": true,
      "inputs": [],
      "name": "STRIKE_PRICE",
      "outputs": [
        {
          "name": "",
          "type": "uint256"
        }
      ],
      "payable": false,
      "stateMutability": "view",
      "type": "function"
    },
    {
      "constant": false,
      "inputs": [],
      "name": "selfdestruct",
      "outputs": [],
      "payable": false,
      "stateMutability": "nonpayable",
      "type": "function"
    },
    {
      "constant": true,
      "inputs": [],
      "name": "vestingPeriod",
      "outputs": [
        {
          "name": "",
          "type": "uint256"
        }
      ],
      "payable": false,
      "stateMutability": "view",
      "type": "function"
    },
    {
      "constant": true,
      "inputs": [],
      "name": "bonusOptionsPromille",
      "outputs": [
        {
          "name": "",
          "type": "uint256"
        }
      ],
      "payable": false,
      "stateMutability": "view",
      "type": "function"
    },
    {
      "constant": true,
      "inputs": [],
      "name": "owner",
      "outputs": [
        {
          "name": "",
          "type": "address"
        }
      ],
      "payable": false,
      "stateMutability": "view",
      "type": "function"
    },
    {
      "constant": true,
      "inputs": [],
      "name": "newEmployeePoolPromille",
      "outputs": [
        {
          "name": "",
          "type": "uint256"
        }
      ],
      "payable": false,
      "stateMutability": "view",
      "type": "function"
    },
    {
      "constant": true,
      "inputs": [
        {
          "name": "v1",
          "type": "uint256"
        },
        {
          "name": "v2",
          "type": "uint256"
        }
      ],
      "name": "absDiff",
      "outputs": [
        {
          "name": "",
          "type": "uint256"
        }
      ],
      "payable": false,
      "stateMutability": "view",
      "type": "function"
    },
    {
      "constant": true,
      "inputs": [],
      "name": "optionsPerShare",
      "outputs": [
        {
          "name": "",
          "type": "uint256"
        }
      ],
      "payable": false,
      "stateMutability": "view",
      "type": "function"
    },
    {
      "constant": true,
      "inputs": [
        {
          "name": "a",
          "type": "uint256"
        },
        {
          "name": "b",
          "type": "uint256"
        }
      ],
      "name": "safeMul",
      "outputs": [
        {
          "name": "",
          "type": "uint256"
        }
      ],
      "payable": false,
      "stateMutability": "view",
      "type": "function"
    },
    {
      "constant": false,
      "inputs": [
        {
          "name": "newOwner",
          "type": "address"
        }
      ],
      "name": "transferOwnership",
      "outputs": [],
      "payable": false,
      "stateMutability": "nonpayable",
      "type": "function"
    },
    {
      "inputs": [
        {
          "name": "pCompanyAddress",
          "type": "address"
        }
      ],
      "payable": false,
      "stateMutability": "nonpayable",
      "type": "constructor"
    },
    {
      "constant": true,
      "inputs": [],
      "name": "residualAmountPromille",
      "outputs": [
        {
          "name": "",
          "type": "uint256"
        }
      ],
      "payable": false,
      "stateMutability": "view",
      "type": "function"
    },
    {
      "constant": true,
      "inputs": [],
      "name": "hasParameters",
      "outputs": [
        {
          "name": "",
          "type": "bool"
        }
      ],
      "payable": false,
      "stateMutability": "view",
      "type": "function"
    },
    {
      "constant": true,
      "inputs": [
        {
          "name": "remainingPoolOptions",
          "type": "uint256"
        }
      ],
      "name": "calcNewEmployeePoolOptions",
      "outputs": [
        {
          "name": "",
          "type": "uint256"
        }
      ],
      "payable": false,
      "stateMutability": "view",
      "type": "function"
    },
    {
      "constant": true,
      "inputs": [
        {
          "name": "t",
          "type": "uint256"
        },
        {
          "name": "vestingStarts",
          "type": "uint256"
        },
        {
          "name": "options",
          "type": "uint256"
        }
      ],
      "name": "calculateVestedOptions",
      "outputs": [
        {
          "name": "",
          "type": "uint256"
        }
      ],
      "payable": false,
      "stateMutability": "view",
      "type": "function"
    },
    {
      "constant": true,
      "inputs": [
        {
          "name": "t",
          "type": "uint32"
        },
        {
          "name": "issueDate",
          "type": "uint32"
        },
        {
          "name": "terminatedAt",
          "type": "uint32"
        },
        {
          "name": "options",
          "type": "uint256"
        },
        {
          "name": "vestedOptions",
          "type": "uint256"
        }
      ],
      "name": "applyFadeoutToOptions",
      "outputs": [
        {
          "name": "",
          "type": "uint256"
        }
      ],
      "payable": false,
      "stateMutability": "view",
      "type": "function"
    },
    {
      "constant": true,
      "inputs": [
        {
          "name": "employee",
          "type": "uint256[9]"
        },
        {
          "name": "calcAtTime",
          "type": "uint32"
        },
        {
          "name": "conversionOfferedAt",
          "type": "uint32"
        },
        {
          "name": "disableAcceleratedVesting",
          "type": "bool"
        }
      ],
      "name": "calculateOptionsComponents",
      "outputs": [
        {
          "name": "",
          "type": "uint256"
        },
        {
          "name": "",
          "type": "uint256"
        },
        {
          "name": "",
          "type": "uint256"
        }
      ],
      "payable": false,
      "stateMutability": "view",
      "type": "function"
    },
    {
      "constant": true,
      "inputs": [
        {
          "name": "employee",
          "type": "uint256[9]"
        },
        {
          "name": "calcAtTime",
          "type": "uint32"
        },
        {
          "name": "conversionOfferedAt",
          "type": "uint32"
        },
        {
          "name": "disableAcceleratedVesting",
          "type": "bool"
        }
      ],
      "name": "calculateOptions",
      "outputs": [
        {
          "name": "",
          "type": "uint256"
        }
      ],
      "payable": false,
      "stateMutability": "view",
      "type": "function"
    },
    {
      "constant": true,
      "inputs": [
        {
          "name": "issuedPoolOptions",
          "type": "uint256"
        },
        {
          "name": "issuedExtraOptions",
          "type": "uint256"
        },
        {
          "name": "vestedOptions",
          "type": "uint256"
        }
      ],
      "name": "extractVestedOptionsComponents",
      "outputs": [
        {
          "name": "",
          "type": "uint256"
        },
        {
          "name": "",
          "type": "uint256"
        }
      ],
      "payable": false,
      "stateMutability": "view",
      "type": "function"
    },
    {
      "constant": true,
      "inputs": [
        {
          "name": "t",
          "type": "uint32"
        },
        {
          "name": "employee",
          "type": "uint256[9]"
        }
      ],
      "name": "calculateFadeoutToPool",
      "outputs": [
        {
          "name": "",
          "type": "uint256"
        },
        {
          "name": "",
          "type": "uint256"
        }
      ],
      "payable": false,
      "stateMutability": "view",
      "type": "function"
    },
    {
      "constant": true,
      "inputs": [
        {
          "name": "issueDate",
          "type": "uint32"
        },
        {
          "name": "terminatedAt",
          "type": "uint32"
        },
        {
          "name": "poolOptions",
          "type": "uint32"
        },
        {
          "name": "extraOptions",
          "type": "uint32"
        },
        {
          "name": "suspendedAt",
          "type": "uint32"
        },
        {
          "name": "employeeState",
          "type": "uint8"
        },
        {
          "name": "calcAtTime",
          "type": "uint32"
        }
      ],
      "name": "simulateOptions",
      "outputs": [
        {
          "name": "",
          "type": "uint256"
        }
      ],
      "payable": false,
      "stateMutability": "view",
      "type": "function"
    },
    {
      "constant": false,
      "inputs": [
        {
          "name": "pCliffPeriod",
          "type": "uint32"
        },
        {
          "name": "pVestingPeriod",
          "type": "uint32"
        },
        {
          "name": "pResidualAmountPromille",
          "type": "uint32"
        },
        {
          "name": "pBonusOptionsPromille",
          "type": "uint32"
        },
        {
          "name": "pNewEmployeePoolPromille",
          "type": "uint32"
        },
        {
          "name": "pOptionsPerShare",
          "type": "uint32"
        }
      ],
      "name": "setParameters",
      "outputs": [],
      "payable": false,
      "stateMutability": "nonpayable",
      "type": "function"
    }
  ],
  "bytecode": "0x6060604052341561000f57600080fd5b60405160208061136383398101604052808051906020019091905050336000806101000a81548173ffffffffffffffffffffffffffffffffffffffff021916908373ffffffffffffffffffffffffffffffffffffffff16021790555080600760006101000a81548173ffffffffffffffffffffffffffffffffffffffff021916908373ffffffffffffffffffffffffffffffffffffffff160217905550506112a7806100bc6000396000f300606060405260043610610149576000357c0100000000000000000000000000000000000000000000000000000000900463ffffffff1680630204c1631461014e5780632c244618146101775780632e50e3ff146101c05780632f661946146102545780633057d5e01461027d57806342ca08cf146102a65780634c6d8aac1461031357806353e1ead9146103405780635573a34c1461039557806362e888bb146103be578063679d38e0146103e75780637313ee5a146103fc5780638ad1896c146104255780638b17ab2f1461044e5780638c7a8140146104d25780638da5cb5b1461052257806398519340146105775780639dc43f2d146105eb578063a09ae0aa14610614578063b1989a2b14610654578063cf02ba9d146106c5578063d05c78da146106ee578063dcec5ecc1461072e578063ec4bfdd414610765578063f2fde38b146107f7575b600080fd5b341561015957600080fd5b610161610830565b6040518082815260200191505060405180910390f35b341561018257600080fd5b6101aa6004808035906020019091908035906020019091908035906020019091905050610836565b6040518082815260200191505060405180910390f35b34156101cb57600080fd5b61023e600480803563ffffffff1690602001909190803563ffffffff1690602001909190803563ffffffff1690602001909190803563ffffffff1690602001909190803563ffffffff1690602001909190803560ff1690602001909190803563ffffffff1690602001909190505061088c565b6040518082815260200191505060405180910390f35b341561025f57600080fd5b610267610949565b6040518082815260200191505060405180910390f35b341561028857600080fd5b61029061094f565b6040518082815260200191505060405180910390f35b34156102b157600080fd5b6102fd600480803563ffffffff1690602001909190803563ffffffff1690602001909190803563ffffffff1690602001909190803590602001909190803590602001909190505061095d565b6040518082815260200191505060405180910390f35b341561031e57600080fd5b6103266109eb565b604051808215151515815260200191505060405180910390f35b341561034b57600080fd5b6103536109f7565b604051808273ffffffffffffffffffffffffffffffffffffffff1673ffffffffffffffffffffffffffffffffffffffff16815260200191505060405180910390f35b34156103a057600080fd5b6103a8610a1d565b6040518082815260200191505060405180910390f35b34156103c957600080fd5b6103d1610a23565b6040518082815260200191505060405180910390f35b34156103f257600080fd5b6103fa610a28565b005b341561040757600080fd5b61040f610abd565b6040518082815260200191505060405180910390f35b341561043057600080fd5b610438610ac3565b6040518082815260200191505060405180910390f35b341561045957600080fd5b6104bc600480806101200190600980602002604051908101604052809291908260096020028082843782019150505050509190803563ffffffff1690602001909190803563ffffffff169060200190919080351515906020019091905050610ac9565b6040518082815260200191505060405180910390f35b34156104dd57600080fd5b6105056004808035906020019091908035906020019091908035906020019091905050610af3565b604051808381526020018281526020019250505060405180910390f35b341561052d57600080fd5b610535610b31565b604051808273ffffffffffffffffffffffffffffffffffffffff1673ffffffffffffffffffffffffffffffffffffffff16815260200191505060405180910390f35b341561058257600080fd5b6105e9600480803563ffffffff1690602001909190803563ffffffff1690602001909190803563ffffffff1690602001909190803563ffffffff1690602001909190803563ffffffff1690602001909190803563ffffffff16906020019091905050610b56565b005b34156105f657600080fd5b6105fe610c81565b6040518082815260200191505060405180910390f35b341561061f57600080fd5b61063e6004808035906020019091908035906020019091905050610c87565b6040518082815260200191505060405180910390f35b341561065f57600080fd5b6106a8600480803563ffffffff16906020019091908061012001906009806020026040519081016040528092919082600960200280828437820191505050505091905050610ca4565b604051808381526020018281526020019250505060405180910390f35b34156106d057600080fd5b6106d8610db2565b6040518082815260200191505060405180910390f35b34156106f957600080fd5b6107186004808035906020019091908035906020019091905050610db8565b6040518082815260200191505060405180910390f35b341561073957600080fd5b61074f6004808035906020019091905050610df2565b6040518082815260200191505060405180910390f35b341561077057600080fd5b6107d3600480806101200190600980602002604051908101604052809291908260096020028082843782019150505050509190803563ffffffff1690602001909190803563ffffffff169060200190919080351515906020019091905050610e0b565b60405180848152602001838152602001828152602001935050505060405180910390f35b341561080257600080fd5b61082e600480803573ffffffffffffffffffffffffffffffffffffffff169060200190919050506110b3565b005b60035481565b600080838511151561084b5760009150610884565b83850390506001548110156108635760009150610884565b60025481106108725782610881565b610880818402600254611188565b5b91505b509392505050565b60006108966111cc565b610120604051908101604052808a63ffffffff168152602001621275008b0163ffffffff1681526020018963ffffffff1681526020018963ffffffff1681526020018863ffffffff1681526020018763ffffffff1681526020018663ffffffff1681526020018560ff16600481111561090b57fe5b600481111561091657fe5b8152602001600161ffff16815250905061093b610932826111ac565b84600080610ac9565b915050979650505050505050565b60015481565b600060035461271003905090565b6000806000808663ffffffff168963ffffffff16101561097f578493506109df565b86890363ffffffff16925087870363ffffffff1691506109a9600354612710038702612710611188565b905084811015156109bc578493506109df565b8183116109da576109d38383038287030283611188565b81016109dc565b805b93505b50505095945050505050565b60008060065411905090565b600760009054906101000a900473ffffffffffffffffffffffffffffffffffffffff1681565b61271081565b600181565b6000809054906101000a900473ffffffffffffffffffffffffffffffffffffffff1673ffffffffffffffffffffffffffffffffffffffff163373ffffffffffffffffffffffffffffffffffffffff16141515610a8357600080fd5b6000809054906101000a900473ffffffffffffffffffffffffffffffffffffffff1673ffffffffffffffffffffffffffffffffffffffff16ff5b60025481565b60045481565b600080600080610adb88888888610e0b565b92509250925080828401019350505050949350505050565b600080600080851415610b0f5783600080905092509250610b28565b610b1d848702868801611188565b905080818503925092505b50935093915050565b6000809054906101000a900473ffffffffffffffffffffffffffffffffffffffff1681565b3373ffffffffffffffffffffffffffffffffffffffff16600760009054906101000a900473ffffffffffffffffffffffffffffffffffffffff1673ffffffffffffffffffffffffffffffffffffffff16141515610bb257600080fd5b6127108463ffffffff161180610bcf57506127108363ffffffff16115b80610be157506127108263ffffffff16115b80610bf2575060008163ffffffff16145b15610bfc57600080fd5b8463ffffffff168663ffffffff161115610c1557600080fd5b610c1d6109eb565b15610c2757600080fd5b8563ffffffff166001819055508463ffffffff166002819055508363ffffffff16612710036003819055508263ffffffff166004819055508163ffffffff166005819055508063ffffffff16600681905550505050505050565b60055481565b6000818311610c9857828203610c9c565b8183035b905092915050565b600080610caf6111cc565b600080600080610cbe886111bc565b9450610ce9856040015163ffffffff16866000015163ffffffff16876080015163ffffffff16610836565b9350610d0a8986600001518760400151886080015163ffffffff168861095d565b610d2d866060015187600001518860400151896080015163ffffffff168961095d565b039250610d59856040015163ffffffff16866000015163ffffffff168760a0015163ffffffff16610836565b9150610d7a89866000015187604001518860a0015163ffffffff168661095d565b610d9d8660600151876000015188604001518960a0015163ffffffff168761095d565b03905082819650965050505050509250929050565b60065481565b60008082840290506000841480610dd95750828482811515610dd657fe5b04145b15610de657809150610deb565b600080fd5b5092915050565b6000610e046005548302612710611188565b9050919050565b6000806000610e186111cc565b6000806000806000806000610e2c8f6111bc565b9750600480811115610e3a57fe5b8860e001516004811115610e4a57fe5b1480610e70575060016004811115610e5e57fe5b8860e001516004811115610e6e57fe5b145b15610e8e5760008060008292508191508090509a509a509a506110a1565b60008d63ffffffff16118015610eb057508c63ffffffff168e63ffffffff1610155b96508760a0015188608001510163ffffffff1695506000861415610ee75760008060008292508191508090509a509a509a506110a1565b876040015163ffffffff168e63ffffffff16108015610f1057506000886040015163ffffffff16115b15610f395760028860e001906004811115610f2757fe5b90816004811115610f3457fe5b815250505b859450868015610f63575060026004811115610f5157fe5b8860e001516004811115610f6157fe5b145b8015610f6d57508b155b93508315156110115760036004811115610f8357fe5b8860e001516004811115610f9357fe5b14610feb5760008860c0015163ffffffff16118015610fc157508d63ffffffff168860c0015163ffffffff16105b610fe05760008d63ffffffff1611610fd9578d610fdb565b8c5b610fe6565b8760c001515b610ff1565b87604001515b925061100e8363ffffffff16896000015163ffffffff1688610836565b94505b6003600481111561101e57fe5b8860e00151600481111561102e57fe5b14156110585761105587611042578e611044565b8d5b89600001518a60400151898961095d565b94505b611077886080015163ffffffff168960a0015163ffffffff1687610af3565b9150915081818561108957600061109a565b6110996004548502612710611188565b5b9a509a509a505b50505050505050509450945094915050565b6000809054906101000a900473ffffffffffffffffffffffffffffffffffffffff1673ffffffffffffffffffffffffffffffffffffffff163373ffffffffffffffffffffffffffffffffffffffff1614151561110e57600080fd5b600073ffffffffffffffffffffffffffffffffffffffff168173ffffffffffffffffffffffffffffffffffffffff1614151561118557806000806101000a81548173ffffffffffffffffffffffffffffffffffffffff021916908373ffffffffffffffffffffffffffffffffffffffff1602179055505b50565b60008160028381151561119757fe5b0484018115156111a357fe5b04905092915050565b6111b4611252565b819050919050565b6111c46111cc565b819050919050565b61012060405190810160405280600063ffffffff168152602001600063ffffffff168152602001600063ffffffff168152602001600063ffffffff168152602001600063ffffffff168152602001600063ffffffff168152602001600063ffffffff1681526020016000600481111561124157fe5b8152602001600061ffff1681525090565b610120604051908101604052806009905b600081526020019060019003908161126357905050905600a165627a7a72305820379c969979dd98e6e4a6fc62ba123c2c066cc62e544cb00620160d3560e2cdbe0029",
  "source": "pragma solidity ^0.4.11;\nimport \"./ESOPTypes.sol\";\n\n\ncontract OptionsCalculator is Ownable, Destructable, Math, ESOPTypes {\n  // cliff duration in seconds\n  uint public cliffPeriod;\n  // vesting duration in seconds\n  uint public vestingPeriod;\n  // maximum promille that can fade out\n  uint public maxFadeoutPromille;\n  // minimal options after fadeout\n  function residualAmountPromille() public constant returns(uint) { return FP_SCALE - maxFadeoutPromille; }\n  // exit bonus promille\n  uint public bonusOptionsPromille;\n  // per mille of unassigned poolOptions that new employee gets\n  uint public newEmployeePoolPromille;\n  // options per share\n  uint public optionsPerShare;\n  // options strike price\n  uint constant public STRIKE_PRICE = 1;\n  // company address\n  address public companyAddress;\n  // checks if calculator i initialized\n  function hasParameters() public constant returns(bool) { return optionsPerShare > 0; }\n\n  modifier onlyCompany() {\n    if (companyAddress != msg.sender)\n      throw;\n    _;\n  }\n\n  function calcNewEmployeePoolOptions(uint remainingPoolOptions)\n    public\n    constant\n    returns (uint)\n  {\n    return divRound(remainingPoolOptions * newEmployeePoolPromille, FP_SCALE);\n  }\n\n  function calculateVestedOptions(uint t, uint vestingStarts, uint options)\n    public\n    constant\n    returns (uint)\n  {\n    if (t <= vestingStarts)\n      return 0;\n    // apply vesting\n    uint effectiveTime = t - vestingStarts;\n    // if within cliff nothing is due\n    if (effectiveTime < cliffPeriod)\n      return 0;\n    else\n      return  effectiveTime < vestingPeriod ? divRound(options * effectiveTime, vestingPeriod) : options;\n  }\n\n  function applyFadeoutToOptions(uint32 t, uint32 issueDate, uint32 terminatedAt, uint options, uint vestedOptions)\n    public\n    constant\n    returns (uint)\n  {\n    if (t < terminatedAt)\n      return vestedOptions;\n    uint timefromTermination = t - terminatedAt;\n    // fadeout duration equals to employment duration\n    uint employmentPeriod = terminatedAt - issueDate;\n    // minimum value of options at the end of fadeout, it is a % of all employee's options\n    uint minFadeValue = divRound(options * (FP_SCALE - maxFadeoutPromille), FP_SCALE);\n    // however employee cannot have more than options after fadeout than he was vested at termination\n    if (minFadeValue >= vestedOptions)\n      return vestedOptions;\n    return timefromTermination > employmentPeriod ?\n      minFadeValue  :\n      (minFadeValue + divRound((vestedOptions - minFadeValue) * (employmentPeriod - timefromTermination), employmentPeriod));\n  }\n\n  function calculateOptionsComponents(uint[9] employee, uint32 calcAtTime, uint32 conversionOfferedAt,\n    bool disableAcceleratedVesting)\n    public\n    constant\n    returns (uint, uint, uint)\n  {\n    // returns tuple of (vested pool options, vested extra options, bonus)\n    Employee memory emp = deserializeEmployee(employee);\n    // no options for converted options or when esop is not singed\n    if (emp.state == EmployeeState.OptionsExercised || emp.state == EmployeeState.WaitingForSignature)\n      return (0,0,0);\n    // no options when esop is being converted and conversion deadline expired\n    bool isESOPConverted = conversionOfferedAt > 0 && calcAtTime >= conversionOfferedAt; // this function time-travels\n    uint issuedOptions = emp.poolOptions + emp.extraOptions;\n    // employee with no options\n    if (issuedOptions == 0)\n      return (0,0,0);\n    // if emp is terminated but we calc options before term, simulate employed again\n    if (calcAtTime < emp.terminatedAt && emp.terminatedAt > 0)\n      emp.state = EmployeeState.Employed;\n    uint vestedOptions = issuedOptions;\n    bool accelerateVesting = isESOPConverted && emp.state == EmployeeState.Employed && !disableAcceleratedVesting;\n    if (!accelerateVesting) {\n      // choose vesting time\n      uint32 calcVestingAt = emp.state ==\n        // if terminated then vesting calculated at termination\n        EmployeeState.Terminated ? emp.terminatedAt :\n        // if employee is supended then compute vesting at suspension time\n        (emp.suspendedAt > 0 && emp.suspendedAt < calcAtTime ? emp.suspendedAt :\n        // if conversion offer then vesting calucated at time the offer was made\n        conversionOfferedAt > 0 ? conversionOfferedAt :\n        // otherwise use current time\n        calcAtTime);\n      vestedOptions = calculateVestedOptions(calcVestingAt, emp.issueDate, issuedOptions);\n    }\n    // calc fadeout for terminated employees\n    if (emp.state == EmployeeState.Terminated) {\n      // use conversion event time to compute fadeout to stop fadeout on conversion IF not after conversion date\n      vestedOptions = applyFadeoutToOptions(isESOPConverted ? conversionOfferedAt : calcAtTime,\n        emp.issueDate, emp.terminatedAt, issuedOptions, vestedOptions);\n    }\n    var (vestedPoolOptions, vestedExtraOptions) = extractVestedOptionsComponents(emp.poolOptions, emp.extraOptions, vestedOptions);\n    // if (vestedPoolOptions + vestedExtraOptions != vestedOptions) throw;\n    return  (vestedPoolOptions, vestedExtraOptions,\n      accelerateVesting ? divRound(vestedPoolOptions*bonusOptionsPromille, FP_SCALE) : 0 );\n  }\n\n  function calculateOptions(uint[9] employee, uint32 calcAtTime, uint32 conversionOfferedAt, bool disableAcceleratedVesting)\n    public\n    constant\n    returns (uint)\n  {\n    var (vestedPoolOptions, vestedExtraOptions, bonus) = calculateOptionsComponents(employee, calcAtTime,\n      conversionOfferedAt, disableAcceleratedVesting);\n    return vestedPoolOptions + vestedExtraOptions + bonus;\n  }\n\n  function extractVestedOptionsComponents(uint issuedPoolOptions, uint issuedExtraOptions, uint vestedOptions)\n    public\n    constant\n    returns (uint, uint)\n  {\n    // breaks down vested options into pool options and extra options components\n    if (issuedExtraOptions == 0)\n      return (vestedOptions, 0);\n    uint poolOptions = divRound(issuedPoolOptions*vestedOptions, issuedPoolOptions + issuedExtraOptions);\n    return (poolOptions, vestedOptions - poolOptions);\n  }\n\n  function calculateFadeoutToPool(uint32 t, uint[9] employee)\n    public\n    constant\n    returns (uint, uint)\n  {\n    Employee memory emp = deserializeEmployee(employee);\n\n    uint vestedOptions = calculateVestedOptions(emp.terminatedAt, emp.issueDate, emp.poolOptions);\n    uint returnedPoolOptions = applyFadeoutToOptions(emp.fadeoutStarts, emp.issueDate, emp.terminatedAt, emp.poolOptions, vestedOptions) -\n      applyFadeoutToOptions(t, emp.issueDate, emp.terminatedAt, emp.poolOptions, vestedOptions);\n    uint vestedExtraOptions = calculateVestedOptions(emp.terminatedAt, emp.issueDate, emp.extraOptions);\n    uint returnedExtraOptions = applyFadeoutToOptions(emp.fadeoutStarts, emp.issueDate, emp.terminatedAt, emp.extraOptions, vestedExtraOptions) -\n      applyFadeoutToOptions(t, emp.issueDate, emp.terminatedAt, emp.extraOptions, vestedExtraOptions);\n\n    return (returnedPoolOptions, returnedExtraOptions);\n  }\n\n  function simulateOptions(uint32 issueDate, uint32 terminatedAt, uint32 poolOptions,\n    uint32 extraOptions, uint32 suspendedAt, uint8 employeeState, uint32 calcAtTime)\n    public\n    constant\n    returns (uint)\n  {\n    Employee memory emp = Employee({issueDate: issueDate, terminatedAt: terminatedAt,\n      poolOptions: poolOptions, extraOptions: extraOptions, state: EmployeeState(employeeState),\n      timeToSign: issueDate+2 weeks, fadeoutStarts: terminatedAt, suspendedAt: suspendedAt,\n      idx:1});\n    return calculateOptions(serializeEmployee(emp), calcAtTime, 0, false);\n  }\n\n  function setParameters(uint32 pCliffPeriod, uint32 pVestingPeriod, uint32 pResidualAmountPromille,\n    uint32 pBonusOptionsPromille, uint32 pNewEmployeePoolPromille, uint32 pOptionsPerShare)\n    external\n    onlyCompany\n  {\n    if (pResidualAmountPromille > FP_SCALE || pBonusOptionsPromille > FP_SCALE || pNewEmployeePoolPromille > FP_SCALE\n     || pOptionsPerShare == 0)\n      throw;\n    if (pCliffPeriod > pVestingPeriod)\n      throw;\n    // initialization cannot be called for a second time\n    if (hasParameters())\n      throw;\n    cliffPeriod = pCliffPeriod;\n    vestingPeriod = pVestingPeriod;\n    maxFadeoutPromille = FP_SCALE - pResidualAmountPromille;\n    bonusOptionsPromille = pBonusOptionsPromille;\n    newEmployeePoolPromille = pNewEmployeePoolPromille;\n    optionsPerShare = pOptionsPerShare;\n  }\n\n  function OptionsCalculator(address pCompanyAddress) {\n    companyAddress = pCompanyAddress;\n  }\n}\n",
  "sourcePath": "/home/ethnode/parity/ESOP/contracts/OptionsCalculator.sol",
  "compiler": {
    "name": "solc",
    "version": "0.4.19+commit.c4cbbb05.Emscripten.clang"
  },
  "schemaVersion": "2.0.0",
  "updatedAt": "2018-03-18T07:17:38.640Z"
}