{
  "contractName": "ProceedsOptionsConverter",
  "abi": [
    {
      "constant": true,
      "inputs": [],
      "name": "totalSupply",
      "outputs": [
        {
          "name": "",
          "type": "uint256"
        }
      ],
      "payable": false,
      "stateMutability": "view",
      "type": "function"
    },
    {
      "constant": true,
      "inputs": [],
      "name": "FP_SCALE",
      "outputs": [
        {
          "name": "",
          "type": "uint256"
        }
      ],
      "payable": false,
      "stateMutability": "view",
      "type": "function"
    },
    {
      "constant": true,
      "inputs": [
        {
          "name": "_owner",
          "type": "address"
        }
      ],
      "name": "balanceOf",
      "outputs": [
        {
          "name": "balance",
          "type": "uint256"
        }
      ],
      "payable": false,
      "stateMutability": "view",
      "type": "function"
    },
    {
      "constant": true,
      "inputs": [],
      "name": "owner",
      "outputs": [
        {
          "name": "",
          "type": "address"
        }
      ],
      "payable": false,
      "stateMutability": "view",
      "type": "function"
    },
    {
      "constant": false,
      "inputs": [
        {
          "name": "employee",
          "type": "address"
        },
        {
          "name": "poolOptions",
          "type": "uint256"
        },
        {
          "name": "extraOptions",
          "type": "uint256"
        },
        {
          "name": "bonusOptions",
          "type": "uint256"
        },
        {
          "name": "agreeToAcceleratedVestingBonusConditions",
          "type": "bool"
        }
      ],
      "name": "exerciseOptions",
      "outputs": [],
      "payable": false,
      "stateMutability": "nonpayable",
      "type": "function"
    },
    {
      "constant": true,
      "inputs": [],
      "name": "optionsConversionDeadline",
      "outputs": [
        {
          "name": "",
          "type": "uint32"
        }
      ],
      "payable": false,
      "stateMutability": "view",
      "type": "function"
    },
    {
      "constant": true,
      "inputs": [
        {
          "name": "v1",
          "type": "uint256"
        },
        {
          "name": "v2",
          "type": "uint256"
        }
      ],
      "name": "absDiff",
      "outputs": [
        {
          "name": "",
          "type": "uint256"
        }
      ],
      "payable": false,
      "stateMutability": "view",
      "type": "function"
    },
    {
      "constant": false,
      "inputs": [
        {
          "name": "t",
          "type": "uint32"
        }
      ],
      "name": "mockTime",
      "outputs": [],
      "payable": false,
      "stateMutability": "nonpayable",
      "type": "function"
    },
    {
      "constant": true,
      "inputs": [
        {
          "name": "a",
          "type": "uint256"
        },
        {
          "name": "b",
          "type": "uint256"
        }
      ],
      "name": "safeMul",
      "outputs": [
        {
          "name": "",
          "type": "uint256"
        }
      ],
      "payable": false,
      "stateMutability": "view",
      "type": "function"
    },
    {
      "constant": true,
      "inputs": [],
      "name": "currentTime",
      "outputs": [
        {
          "name": "",
          "type": "uint32"
        }
      ],
      "payable": false,
      "stateMutability": "view",
      "type": "function"
    },
    {
      "constant": true,
      "inputs": [],
      "name": "getExercisePeriodDeadline",
      "outputs": [
        {
          "name": "",
          "type": "uint32"
        }
      ],
      "payable": false,
      "stateMutability": "view",
      "type": "function"
    },
    {
      "constant": false,
      "inputs": [
        {
          "name": "newOwner",
          "type": "address"
        }
      ],
      "name": "transferOwnership",
      "outputs": [],
      "payable": false,
      "stateMutability": "nonpayable",
      "type": "function"
    },
    {
      "constant": true,
      "inputs": [],
      "name": "getESOP",
      "outputs": [
        {
          "name": "",
          "type": "address"
        }
      ],
      "payable": false,
      "stateMutability": "view",
      "type": "function"
    },
    {
      "inputs": [
        {
          "name": "esop",
          "type": "address"
        },
        {
          "name": "exerciseDeadline",
          "type": "uint32"
        },
        {
          "name": "conversionDeadline",
          "type": "uint32"
        }
      ],
      "payable": false,
      "stateMutability": "nonpayable",
      "type": "constructor"
    },
    {
      "payable": true,
      "stateMutability": "payable",
      "type": "fallback"
    },
    {
      "anonymous": false,
      "inputs": [
        {
          "indexed": true,
          "name": "from",
          "type": "address"
        },
        {
          "indexed": true,
          "name": "to",
          "type": "address"
        },
        {
          "indexed": false,
          "name": "value",
          "type": "uint256"
        }
      ],
      "name": "Transfer",
      "type": "event"
    },
    {
      "constant": false,
      "inputs": [],
      "name": "makePayout",
      "outputs": [],
      "payable": true,
      "stateMutability": "payable",
      "type": "function"
    },
    {
      "constant": false,
      "inputs": [],
      "name": "withdraw",
      "outputs": [
        {
          "name": "",
          "type": "uint256"
        }
      ],
      "payable": false,
      "stateMutability": "nonpayable",
      "type": "function"
    },
    {
      "constant": false,
      "inputs": [
        {
          "name": "_to",
          "type": "address"
        },
        {
          "name": "_value",
          "type": "uint256"
        }
      ],
      "name": "transfer",
      "outputs": [],
      "payable": false,
      "stateMutability": "nonpayable",
      "type": "function"
    }
  ],
  "bytecode": "0x6060604052341561000f57600080fd5b604051606080610f4783398101604052808051906020019091908051906020019091908051906020019091905050828282336000806101000a81548173ffffffffffffffffffffffffffffffffffffffff021916908373ffffffffffffffffffffffffffffffffffffffff16021790555082600160006101000a81548173ffffffffffffffffffffffffffffffffffffffff021916908373ffffffffffffffffffffffffffffffffffffffff16021790555081600160146101000a81548163ffffffff021916908363ffffffff16021790555080600460006101000a81548163ffffffff021916908363ffffffff160217905550505050505050610e2f806101186000396000f3006060604052600436106100e6576000357c0100000000000000000000000000000000000000000000000000000000900463ffffffff16806318160ddd146100eb5780633ccfd60b146101145780635573a34c1461013d57806370a08231146101665780638da5cb5b146101b35780638e6df32f146102085780639964935e146102675780639c55519b14610271578063a09ae0aa146102a6578063a9059cbb146102e6578063c4e7099f14610328578063d05c78da14610351578063d18e81b314610391578063e1a7739c146103c6578063f2fde38b146103fb578063f73c30e314610434575b600080fd5b34156100f657600080fd5b6100fe610489565b6040518082815260200191505060405180910390f35b341561011f57600080fd5b61012761048f565b6040518082815260200191505060405180910390f35b341561014857600080fd5b61015061067b565b6040518082815260200191505060405180910390f35b341561017157600080fd5b61019d600480803573ffffffffffffffffffffffffffffffffffffffff16906020019091905050610681565b6040518082815260200191505060405180910390f35b34156101be57600080fd5b6101c66106ca565b604051808273ffffffffffffffffffffffffffffffffffffffff1673ffffffffffffffffffffffffffffffffffffffff16815260200191505060405180910390f35b341561021357600080fd5b610265600480803573ffffffffffffffffffffffffffffffffffffffff1690602001909190803590602001909190803590602001909190803590602001909190803515159060200190919050506106ef565b005b61026f610831565b005b341561027c57600080fd5b6102846108fe565b604051808263ffffffff1663ffffffff16815260200191505060405180910390f35b34156102b157600080fd5b6102d06004808035906020019091908035906020019091905050610914565b6040518082815260200191505060405180910390f35b34156102f157600080fd5b610326600480803573ffffffffffffffffffffffffffffffffffffffff16906020019091908035906020019091905050610931565b005b341561033357600080fd5b61034f600480803563ffffffff16906020019091905050610a08565b005b341561035c57600080fd5b61037b6004808035906020019091908035906020019091905050610a3c565b6040518082815260200191505060405180910390f35b341561039c57600080fd5b6103a4610a76565b604051808263ffffffff1663ffffffff16815260200191505060405180910390f35b34156103d157600080fd5b6103d9610ac7565b604051808263ffffffff1663ffffffff16815260200191505060405180910390f35b341561040657600080fd5b610432600480803573ffffffffffffffffffffffffffffffffffffffff16906020019091905050610ae1565b005b341561043f57600080fd5b610447610bb6565b604051808273ffffffffffffffffffffffffffffffffffffffff1673ffffffffffffffffffffffffffffffffffffffff16815260200191505060405180910390f35b60035481565b600080600080600080600460009054906101000a900463ffffffff1663ffffffff166104b9610a76565b63ffffffff1610156104ca57600080fd5b6104d333610681565b945060008514156104e75760009550610673565b600560003373ffffffffffffffffffffffffffffffffffffffff1673ffffffffffffffffffffffffffffffffffffffff16815260200190815260200160002054935060068054905084141561053f5760009550610673565b600092508391505b6006805490508210156105975761058361057b60068481548110151561056957fe5b90600052602060002090015487610a3c565b600354610be0565b905080830192508180600101925050610547565b600680549050600560003373ffffffffffffffffffffffffffffffffffffffff1673ffffffffffffffffffffffffffffffffffffffff16815260200190815260200160002081905550600083111561066f576103e861060d3073ffffffffffffffffffffffffffffffffffffffff163185610914565b101561062e573073ffffffffffffffffffffffffffffffffffffffff163192505b3373ffffffffffffffffffffffffffffffffffffffff166108fc849081150290604051600060405180830381858888f19350505050151561066e57600080fd5b5b8295505b505050505090565b61271081565b6000600260008373ffffffffffffffffffffffffffffffffffffffff1673ffffffffffffffffffffffffffffffffffffffff168152602001908152602001600020549050919050565b6000809054906101000a900473ffffffffffffffffffffffffffffffffffffffff1681565b60006106f9610bb6565b73ffffffffffffffffffffffffffffffffffffffff163373ffffffffffffffffffffffffffffffffffffffff1614151561073257600080fd5b600160149054906101000a900463ffffffff1663ffffffff16610753610a76565b63ffffffff1610151561076557600080fd5b6107786107728686610c04565b84610c04565b905061078660035482610c04565b60038190555080600260008873ffffffffffffffffffffffffffffffffffffffff1673ffffffffffffffffffffffffffffffffffffffff168152602001908152602001600020600082825401925050819055508573ffffffffffffffffffffffffffffffffffffffff1660007fddf252ad1be2c89b69c2b068fc378daa952ba7f163c4a11628f55a4df523b3ef836040518082815260200191505060405180910390a3505050505050565b600460009054906101000a900463ffffffff1663ffffffff16610852610a76565b63ffffffff16101561086357600080fd5b6000809054906101000a900473ffffffffffffffffffffffffffffffffffffffff1673ffffffffffffffffffffffffffffffffffffffff163373ffffffffffffffffffffffffffffffffffffffff161415156108be57600080fd5b670de0b6b3a76400003410156108d357600080fd5b600680548060010182816108e79190610db2565b916000526020600020900160003490919091505550565b600460009054906101000a900463ffffffff1681565b600081831161092557828203610929565b8183035b905092915050565b600460009054906101000a900463ffffffff1663ffffffff16610952610a76565b63ffffffff16101561096357600080fd5b6000600560008473ffffffffffffffffffffffffffffffffffffffff1673ffffffffffffffffffffffffffffffffffffffff1681526020019081526020016000205411806109f057506000600560003373ffffffffffffffffffffffffffffffffffffffff1673ffffffffffffffffffffffffffffffffffffffff16815260200190815260200160002054115b156109fa57600080fd5b610a048282610c31565b5050565b6232993d431115610a1857600080fd5b80600060146101000a81548163ffffffff021916908363ffffffff16021790555050565b60008082840290506000841480610a5d5750828482811515610a5a57fe5b04145b15610a6a57809150610a6f565b600080fd5b5092915050565b600063ffffffff421115610a8957600080fd5b60008060149054906101000a900463ffffffff1663ffffffff1611610aae5742610ac2565b600060149054906101000a900463ffffffff165b905090565b6000600160149054906101000a900463ffffffff16905090565b6000809054906101000a900473ffffffffffffffffffffffffffffffffffffffff1673ffffffffffffffffffffffffffffffffffffffff163373ffffffffffffffffffffffffffffffffffffffff16141515610b3c57600080fd5b600073ffffffffffffffffffffffffffffffffffffffff168173ffffffffffffffffffffffffffffffffffffffff16141515610bb357806000806101000a81548173ffffffffffffffffffffffffffffffffffffffff021916908373ffffffffffffffffffffffffffffffffffffffff1602179055505b50565b6000600160009054906101000a900473ffffffffffffffffffffffffffffffffffffffff16905090565b600081600283811515610bef57fe5b048401811515610bfb57fe5b04905092915050565b6000808284019050838110158015610c1c5750828110155b1515610c2757600080fd5b8091505092915050565b600460009054906101000a900463ffffffff1663ffffffff16610c52610a76565b63ffffffff161015610c6357600080fd5b80600260003373ffffffffffffffffffffffffffffffffffffffff1673ffffffffffffffffffffffffffffffffffffffff168152602001908152602001600020541015610caf57600080fd5b80600260003373ffffffffffffffffffffffffffffffffffffffff1673ffffffffffffffffffffffffffffffffffffffff1681526020019081526020016000206000828254039250508190555080600260008473ffffffffffffffffffffffffffffffffffffffff1673ffffffffffffffffffffffffffffffffffffffff168152602001908152602001600020600082825401925050819055508173ffffffffffffffffffffffffffffffffffffffff163373ffffffffffffffffffffffffffffffffffffffff167fddf252ad1be2c89b69c2b068fc378daa952ba7f163c4a11628f55a4df523b3ef836040518082815260200191505060405180910390a35050565b815481835581811511610dd957818360005260206000209182019101610dd89190610dde565b5b505050565b610e0091905b80821115610dfc576000816000905550600101610de4565b5090565b905600a165627a7a723058207823e541af280806fdf76add04146acc6177cecdd093aedd621f0d67e246dae30029",
  "source": "pragma solidity ^0.4.11;\nimport './ERC20OptionsConverter.sol';\n\n\ncontract ProceedsOptionsConverter is Ownable, ERC20OptionsConverter {\n  mapping (address => uint) internal withdrawals;\n  uint[] internal payouts;\n\n  function makePayout() converted payable onlyOwner public {\n    // it does not make sense to distribute less than ether\n    if (msg.value < 1 ether)\n      throw;\n    payouts.push(msg.value);\n  }\n\n  function withdraw() converted public returns (uint) {\n    // withdraw for msg.sender\n    uint balance = balanceOf(msg.sender);\n    if (balance == 0)\n      return 0;\n    uint paymentId = withdrawals[msg.sender];\n    // if all payouts for given token holder executed then exit\n    if (paymentId == payouts.length)\n      return 0;\n    uint payout = 0;\n    for (uint i = paymentId; i<payouts.length; i++) {\n      // it is safe to make payouts pro-rata: (1) token supply will not change - check converted/conversion modifiers\n      // -- (2) balances will not change: check transfer override which limits transfer between accounts\n      // NOTE: safeMul throws on overflow, can lock users out of their withdrawals if balance is very high\n      // @remco I know. any suggestions? expression below gives most precision\n      uint thisPayout = divRound(safeMul(payouts[i], balance), totalSupply);\n      payout += thisPayout;\n    }\n    // change now to prevent re-entry (not necessary due to low send() gas limit)\n    withdrawals[msg.sender] = payouts.length;\n    if (payout > 0) {\n      // now modify payout within 1000 weis as we had rounding errors coming from pro-rata amounts\n      // @remco maximum rounding error is (num_employees * num_payments) / 2 with the mean 0\n      // --- 1000 wei is still nothing, please explain me what problem you see here\n      if ( absDiff(this.balance, payout) < 1000 wei )\n        payout = this.balance; // send all\n      //if(!msg.sender.call.value(payout)()) // re entry test\n      //  throw;\n      if (!msg.sender.send(payout))\n        throw;\n    }\n    return payout;\n  }\n\n  function transfer(address _to, uint _value) public converted {\n    // if anything was withdrawn then block transfer to prevent multiple withdrawals\n    // todo: we could allow transfer to new account (no token balance)\n    // todo: we could allow transfer between account that fully withdrawn (but what's the point? -token has 0 value then)\n    // todo: there are a few other edge cases where there's transfer and no double spending\n    if (withdrawals[_to] > 0 || withdrawals[msg.sender] > 0)\n      throw;\n    ERC20OptionsConverter.transfer(_to, _value);\n  }\n\n  function ProceedsOptionsConverter(address esop, uint32 exerciseDeadline, uint32 conversionDeadline)\n    ERC20OptionsConverter(esop, exerciseDeadline, conversionDeadline)\n  {\n  }\n}\n",
  "sourcePath": "/home/ethnode/parity/ESOP/contracts/ProceedsOptionsConverter.sol",
  "compiler": {
    "name": "solc",
    "version": "0.4.19+commit.c4cbbb05.Emscripten.clang"
  },
  "schemaVersion": "2.0.0",
  "updatedAt": "2018-03-18T07:17:38.709Z"
}