{
  "contractName": "RoT",
  "abi": [
    {
      "constant": true,
      "inputs": [],
      "name": "owner",
      "outputs": [
        {
          "name": "",
          "type": "address"
        }
      ],
      "payable": false,
      "stateMutability": "view",
      "type": "function"
    },
    {
      "constant": true,
      "inputs": [],
      "name": "ESOPAddress",
      "outputs": [
        {
          "name": "",
          "type": "address"
        }
      ],
      "payable": false,
      "stateMutability": "view",
      "type": "function"
    },
    {
      "constant": false,
      "inputs": [
        {
          "name": "newOwner",
          "type": "address"
        }
      ],
      "name": "transferOwnership",
      "outputs": [],
      "payable": false,
      "stateMutability": "nonpayable",
      "type": "function"
    },
    {
      "anonymous": false,
      "inputs": [
        {
          "indexed": false,
          "name": "ESOPAddress",
          "type": "address"
        },
        {
          "indexed": false,
          "name": "companyAddress",
          "type": "address"
        }
      ],
      "name": "ESOPAndCompanySet",
      "type": "event"
    },
    {
      "constant": false,
      "inputs": [
        {
          "name": "ESOP",
          "type": "address"
        },
        {
          "name": "company",
          "type": "address"
        }
      ],
      "name": "setESOP",
      "outputs": [],
      "payable": false,
      "stateMutability": "nonpayable",
      "type": "function"
    },
    {
      "constant": false,
      "inputs": [],
      "name": "killOnUnsupportedFork",
      "outputs": [],
      "payable": false,
      "stateMutability": "nonpayable",
      "type": "function"
    }
  ],
  "bytecode": "0x6060604052336000806101000a81548173ffffffffffffffffffffffffffffffffffffffff021916908373ffffffffffffffffffffffffffffffffffffffff160217905550610508806100536000396000f30060606040526004361061006d576000357c0100000000000000000000000000000000000000000000000000000000900463ffffffff16806323dd797b146100725780638da5cb5b146100ca578063a09994361461011f578063f2fde38b14610174578063f81a1860146101ad575b600080fd5b341561007d57600080fd5b6100c8600480803573ffffffffffffffffffffffffffffffffffffffff1690602001909190803573ffffffffffffffffffffffffffffffffffffffff169060200190919050506101c2565b005b34156100d557600080fd5b6100dd610302565b604051808273ffffffffffffffffffffffffffffffffffffffff1673ffffffffffffffffffffffffffffffffffffffff16815260200191505060405180910390f35b341561012a57600080fd5b610132610327565b604051808273ffffffffffffffffffffffffffffffffffffffff1673ffffffffffffffffffffffffffffffffffffffff16815260200191505060405180910390f35b341561017f57600080fd5b6101ab600480803573ffffffffffffffffffffffffffffffffffffffff1690602001909190505061034d565b005b34156101b857600080fd5b6101c0610422565b005b6000809054906101000a900473ffffffffffffffffffffffffffffffffffffffff1673ffffffffffffffffffffffffffffffffffffffff163373ffffffffffffffffffffffffffffffffffffffff1614151561021d57600080fd5b81600160006101000a81548173ffffffffffffffffffffffffffffffffffffffff021916908373ffffffffffffffffffffffffffffffffffffffff1602179055506102678161034d565b7ffd1343f12ef8aec2cfc51406ac5f6d6d2d4d4586184c43a26901e54e94273cf68282604051808373ffffffffffffffffffffffffffffffffffffffff1673ffffffffffffffffffffffffffffffffffffffff1681526020018273ffffffffffffffffffffffffffffffffffffffff1673ffffffffffffffffffffffffffffffffffffffff1681526020019250505060405180910390a15050565b6000809054906101000a900473ffffffffffffffffffffffffffffffffffffffff1681565b600160009054906101000a900473ffffffffffffffffffffffffffffffffffffffff1681565b6000809054906101000a900473ffffffffffffffffffffffffffffffffffffffff1673ffffffffffffffffffffffffffffffffffffffff163373ffffffffffffffffffffffffffffffffffffffff161415156103a857600080fd5b600073ffffffffffffffffffffffffffffffffffffffff168173ffffffffffffffffffffffffffffffffffffffff1614151561041f57806000806101000a81548173ffffffffffffffffffffffffffffffffffffffff021916908373ffffffffffffffffffffffffffffffffffffffff1602179055505b50565b6000809054906101000a900473ffffffffffffffffffffffffffffffffffffffff1673ffffffffffffffffffffffffffffffffffffffff163373ffffffffffffffffffffffffffffffffffffffff1614151561047d57600080fd5b600160006101000a81549073ffffffffffffffffffffffffffffffffffffffff02191690556000809054906101000a900473ffffffffffffffffffffffffffffffffffffffff1673ffffffffffffffffffffffffffffffffffffffff16ff00a165627a7a7230582004c233a4b89384df0e89f8763b0a017853c2a71cdb76246d642b64d193384b9a0029",
  "source": "pragma solidity ^0.4.11;\nimport \"./Types.sol\";\n\n\ncontract RoT is Ownable {\n    address public ESOPAddress;\n    event ESOPAndCompanySet(address ESOPAddress, address companyAddress);\n\n    function setESOP(address ESOP, address company) public onlyOwner {\n      // owner sets ESOP and company only once then passes ownership to company\n      // initially owner is a developer/admin\n      ESOPAddress = ESOP;\n      transferOwnership(company);\n      ESOPAndCompanySet(ESOP, company);\n    }\n\n    function killOnUnsupportedFork() public onlyOwner {\n      // this method may only be called by company on unsupported forks\n      delete ESOPAddress;\n      selfdestruct(owner);\n    }\n}\n",
  "sourcePath": "/home/ethnode/parity/ESOP/contracts/RoT.sol",
  "compiler": {
    "name": "solc",
    "version": "0.4.19+commit.c4cbbb05.Emscripten.clang"
  },
  "schemaVersion": "2.0.0",
  "updatedAt": "2018-03-18T07:17:38.721Z"
}