{
  "contractName": "TimeSource",
  "abi": [
    {
      "constant": true,
      "inputs": [],
      "name": "currentTime",
      "outputs": [
        {
          "name": "",
          "type": "uint32"
        }
      ],
      "payable": false,
      "stateMutability": "view",
      "type": "function"
    },
    {
      "constant": false,
      "inputs": [
        {
          "name": "t",
          "type": "uint32"
        }
      ],
      "name": "mockTime",
      "outputs": [],
      "payable": false,
      "stateMutability": "nonpayable",
      "type": "function"
    }
  ],
  "bytecode": "0x6060604052341561000f57600080fd5b61015e8061001e6000396000f30060606040526004361061004c576000357c0100000000000000000000000000000000000000000000000000000000900463ffffffff168063c4e7099f14610051578063d18e81b31461007a575b600080fd5b341561005c57600080fd5b610078600480803563ffffffff169060200190919050506100af565b005b341561008557600080fd5b61008d6100e2565b604051808263ffffffff1663ffffffff16815260200191505060405180910390f35b6232993d4311156100bf57600080fd5b806000806101000a81548163ffffffff021916908363ffffffff16021790555050565b600063ffffffff4211156100f557600080fd5b60008060009054906101000a900463ffffffff1663ffffffff161161011a574261012d565b6000809054906101000a900463ffffffff165b9050905600a165627a7a7230582044856a8a8a974f7095d8e25b39f8968a65a62f825f6f77a08804552ef7a8aa830029",
  "source": "pragma solidity ^0.4.11;\n\n\ncontract Ownable {\n  // replace with proper zeppelin smart contract\n  address public owner;\n\n  function Ownable() {\n    owner = msg.sender;\n  }\n\n  modifier onlyOwner() {\n    if (msg.sender != owner)\n      throw;\n    _;\n  }\n\n  function transferOwnership(address newOwner) onlyOwner {\n    if (newOwner != address(0))\n      owner = newOwner;\n  }\n}\n\n\ncontract Destructable is Ownable {\n  function selfdestruct() external onlyOwner {\n    // free ethereum network state when done\n    selfdestruct(owner);\n  }\n}\n\n\ncontract Math {\n  // scale of the emulated fixed point operations\n  uint constant public FP_SCALE = 10000;\n\n  // todo: should be a library\n  function divRound(uint v, uint d) internal constant returns(uint) {\n    // round up if % is half or more\n    return (v + (d/2)) / d;\n  }\n\n  function absDiff(uint v1, uint v2) public constant returns(uint) {\n    return v1 > v2 ? v1 - v2 : v2 - v1;\n  }\n\n  function safeMul(uint a, uint b) public constant returns (uint) {\n    uint c = a * b;\n    if (a == 0 || c / a == b)\n      return c;\n    else\n      throw;\n  }\n\n  function safeAdd(uint a, uint b) internal constant returns (uint) {\n    uint c = a + b;\n    if (!(c>=a && c>=b))\n      throw;\n    return c;\n  }\n}\n\n\ncontract TimeSource {\n  uint32 private mockNow;\n\n  function currentTime() public constant returns (uint32) {\n    // we do not support dates much into future (Sun, 07 Feb 2106 06:28:15 GMT)\n    if (block.timestamp > 0xFFFFFFFF)\n      throw;\n    return mockNow > 0 ? mockNow : uint32(block.timestamp);\n  }\n\n  function mockTime(uint32 t) public {\n    // no mocking on mainnet\n    if (block.number > 3316029)\n      throw;\n    mockNow = t;\n  }\n}\n",
  "sourcePath": "/home/ethnode/parity/ESOP/contracts/Types.sol",
  "compiler": {
    "name": "solc",
    "version": "0.4.19+commit.c4cbbb05.Emscripten.clang"
  },
  "schemaVersion": "2.0.0",
  "updatedAt": "2018-03-18T07:17:38.761Z"
}